:100000004FC089C06EC06DC06CC06BC06AC069C093
:1000100068C067C066C065C064C063C062C061C0BC
:1000200060C05FC05EC00902190001010080320992
:100030000400000103000000070581030800FA1214
:10004000011001FF000008501D3260010001020391
:1000500001100365007400680065007200690061AA
:10006000001C036E0052004600320034004C003089
:100070000031002D0074006F006F006C001E0377CC
:1000800000770077002E006E00630072006D006E36
:100090000074002E006F0072006700040309040062
:1000A00011241FBECFE5D4E0DEBFCDBF10E0A0E637
:1000B000B0E0EAE2F0E102C005900D92AE38B1077F
:1000C000D9F711E0AEE8B0E001C01D92AB34B10742
:1000D000E1F7F89417D74BD7789424D750D14CD167
:1000E000A1C78ECFA82FB92F80E090E041E050EA61
:1000F000609530E009C02D9182279795879510F083
:1001000084279527305EC8F36F5FA8F30895EADF70
:100110008D939D930895CF93CFB7CF93C395829B33
:10012000E9F7829B09C0829B07C0829B05C0829B26
:1001300003C0829B01C0A3C0DF93C091A400DD2750
:10014000C555DF4F829B02C0DF91EBCF2F930F93FA
:100150001F9300B32FEF02FB20F94F933F9310B38F
:100160004FEF012702FB21F93BE031C04E7F012F09
:1001700010B3216028C0102F4D7F2260000000B313
:1001800029C04B7F2460012F000010B32BC010B397
:10019000477F28602AC04F7E00B320612CC04F7D6E
:1001A00010B320622FC04F7B00B3206432C04227BF
:1001B00000B349934FEF0000102712FB20F910B352
:1001C0001471C9F1297F91F2012702FB21F900B3D3
:1001D000237F89F2315058F1102712FB22F910B316
:1001E000277E79F2012702FB23F92F7C81F200B3ED
:1001F000102712FB24F92F7971F200C010B30127E8
:1002000002FB25F92F7359F200C000B3102712FB2F
:1002100026F9223040F200C010B3012702FB27F973
:10022000243028F64F77206810B30000F9CF10E48F
:100230001ABF002719C03B503195C31BD04010E4B2
:100240001ABF0881033CF9F00B34E9F02091A200B9
:100250001981110F1213EDCF4A81441F093641F164
:100260000D3211F0013E29F70093A9003F914F9103
:100270001F910F912F91DF91CAB7C6FD4FCFCF913C
:10028000CFBFCF9118952091A900222379F3109127
:10029000A700112321F5343022F13093A7002093D9
:1002A000A3001091A4003BE0311B3093A40019C0BF
:1002B0000091A70001309CF40AE54F7081F4309161
:1002C000600034FD10C000936000C7E9D0E00FC0AB
:1002D0002795A8F45150A9F4220F0000F9CF4AE560
:1002E00003C042ED01C0432FC4E1D0E032E011B3BE
:1002F0001461929A11BB02B320E414E15F930127C9
:1003000056E002BB279520F4515021F4220FF9CF7B
:10031000012756E000003B5A02BBD0F2279528F493
:10032000515029F4220F0000F9CF012756E02795FC
:1003300002BB20F4515021F4220FF9CF012756E0DF
:100340002991332302BB21F60B7E1091A800110FD7
:10035000C651D04002BB11F01093A20010E41ABFA6
:10036000046011B31B7E402F4B7E5F9100C000C024
:1003700002BB11BB42BB7ACF80E090E008951F938F
:10038000CF93DF936091A700635067FDB0C0809169
:10039000A400CCE0D0E0C81BD109C555DF4F809147
:1003A000A3008D3209F092C0683009F09EC083EC42
:1003B000809397008AE58093600010928E00888178
:1003C000807619F0CE018DD46EC09A811092A00073
:1003D0008981811106C01092A10020EA30E082E0FC
:1003E0005EC0853019F49093A8004DC0863009F0A6
:1003F00044C08B81813041F48FE390E09093A6005C
:100400008093A50082E135C0823041F486E290E01D
:100410009093A6008093A50089E12BC0833041F51D
:10042000911108C08BE990E09093A6008093A500FD
:1004300084E01FC0913041F48DE790E09093A600D6
:100440008093A5008EE115C0923041F481E690E0E2
:100450009093A6008093A5008CE10BC0933041F4EB
:1004600081E590E09093A6008093A50080E101C013
:1004700080E090E490938E0016C0883069F0893057
:1004800029F49093AA0020EA30E004C020EA30E08A
:100490008A3021F080E003C02AEA30E081E0309326
:1004A000A6002093A5008F3F39F4988197FD8E8197
:1004B00090E890938E0007C09F81911104C09E81A7
:1004C000981708F4892F809361000FC080918E00E7
:1004D00087FF0BC0CE01A8D48F3F21F48EE180931B
:1004E000600003C08111109261001092A7008091FA
:1004F000600084FF3FC0809161008F3FD9F1182FC9
:10050000893008F018E0811B80936100809197008A
:1005100098E8892780939700112301F1E091A500C5
:10052000F091A60080918E0086FF0AC0A8E9B0E095
:10053000812F8A0F94919D9331968A13FBCF0AC025
:10054000EF01A8E9B0E0812F8A0F99919D93FE01F8
:100550008A13FBCFF093A600E093A500612F88E9F2
:1005600090E0D5DD1C5F1C3019F08FEF80936100A7
:100570001093600084E190B3947131F48150D9F705
:100580001092A8001092A200DF91CF911F910895C0
:1005900085B7826085BF8BB780648BBF0895E0917B
:1005A0008F00F09190000190F081E02D90E009958E
:1005B0000895E0918F00F09190000280F381E02D8A
:1005C00090E009950895E0918F00F09190000680E9
:1005D000F781E02D09950895A1E0B0E0E1EFF2E0A8
:1005E000E6C47A01122F80E06983D9DF6981862F02
:1005F0008F71E9DF082F1E0D05C08FEFE4DFF701D3
:1006000081937F011E11F9CF81E0C9DF802F2196F0
:10061000E6E0E9C4A1E0B0E0EFE0F3E0CBC480E0C5
:100620006983BDDF6981862F8F71CDDF8FEFCBDFCF
:10063000182F81E0B4DF812F2196E3E0D7C4A1E039
:10064000B0E0E4E2F3E0B3C47A01122F80E0698302
:10065000A6DF6981862F8F718062B5DF082F1E0D9E
:1006600004C0F70181917F01AEDF1E11FACF81E056
:1006700096DF802F2196E6E0B6C4A2E0B0E0E2E487
:10068000F3E095C47A01E20EF11C80E02A836983CD
:1006900086DF6981862F8F71806295DF182F2A810E
:1006A000022F0E1904C0F70182917F018CDF8E2D7D
:1006B000800FC9F781E073DF812F2296E6E093C4B3
:1006C000A2E0B0E0E5E6F3E075C480E04A83698328
:1006D00066DF6981862F8F71806275DF182F4A81EE
:1006E000842F71DF81E05BDF812F2296E3E07EC4FF
:1006F000FF920F931F93CF93DF93EB01FC011185C2
:10070000042F141708F4012FFC01808583FD02C01B
:10071000101B01C010E080E042DF80EA54DFF82EB9
:100720000C0F02C089914FDF0C13FCCF03C080E097
:100730004ADF11501111FBCF81E031DF8F2DCDB792
:10074000DEB7E5E051C4FF920F931F93CF93DF9381
:10075000EB01FC011185042F141708F4012FFC0193
:10076000808583FD02C0101B01C010E080E017DF10
:1007700081E629DFF82E0C0F03C08FEF24DF899369
:100780000C13FBCF03C08FEF1EDF11501111FBCFF5
:1007900081E005DF8F2DCDB7DEB7E5E025C4CF932F
:1007A00080E0FDDE82EE0FDFC82F81E0F8DE8C2FC7
:1007B000CF910895CF9380E0F2DE81EE04DFC82F61
:1007C00081E0EDDE8C2FCF910895CF9380E0E7DEBE
:1007D0008FEFF9DEC82F81E0E2DE8C2FCF910895F4
:1007E00080E0DDDE80E5EFDE83E7EDDE81E0D7DE71
:1007F00008951F93CF93DF93EC01162F462F6DE1E1
:100800005FDF6DE1CE0106DF811106C0CE01E8DFBA
:10081000412F6DE1CE0154DF6DE1CE01FBDE811190
:1008200001C0FFCFDF91CF911F910895CF93DF9348
:10083000EC0160E0EFDE482F436060E0CE0140DF76
:1008400040E767E0CE013CDFAE01455F5F4F25E04A
:100850006AE0CE0112DF81E0ACDE86E891E001972C
:10086000F1F7DF91CF910895CF93DF93EC0180E012
:10087000A0DECE019FDFCE0192DFDF91CF91089500
:10088000A0E0B0E0E5E4F4E091C3EC017B019DDF82
:10089000D82E082F007410E00115110589F0E1141D
:1008A000F10421F086958770F701808340E467E0CA
:1008B000CE0106DFD5FE04C040E267E0CE0100DFD6
:1008C000C801CDB7DEB7E7E08DC3CF93DF93EC016E
:1008D0003ADF67E1CE019EDE817090E0DF91CF913B
:1008E00008950F931F93CF93DF93EC018B0125E0C5
:1008F000AB016AE0C2DE25E0A80160E1CE01BDDE09
:100900004985413208F040E261E1CE01D9DEDF9154
:10091000CF911F910F910895A2E1B0E0E1E9F4E0D9
:1009200046C38C01E62E86E0E4E7F0E0DE011D968A
:1009300001900D928A95E1F786E0EAE7F0E0DE01AA
:10094000179601900D928A95E1F786E0E0E8F0E0D5
:10095000DE01119601900D928A95E1F7611115C0A3
:10096000FA0180E090E02191D801A80FB91F1B96F1
:100970002C93019685309105B1F7FE01EE0DF11D26
:1009800025E06585C80179DE0DC086E08617F8F0A0
:10099000A1E06A1791F3FE01E60FF11D21E06585E4
:1009A000C8014DDEF12CFE01EE0DFF1DD801199698
:1009B0004C916781C80184DE62E0C8012BDEFE0134
:1009C000EE0DFF1D4181482B62E0C80179DE629681
:1009D000E6E009C34F7020E1629FB0011124462B6D
:1009E00064E06EDE0895462F603808F04FE765E05A
:1009F00067DE08951F93CF93DF93EC0180E0CFDD96
:100A000080E6E1DD8FEFDFDD182F81E0C8DD1132F8
:100A100010F0CE01C4DE812FDF91CF911F91089598
:100A2000CF93DF93EC016DE1F5DD682F6460CE01BB
:100A3000E0DE6CE1CE01EEDD482F4F636CE1CE01CC
:100A40003FDE888588608887DF91CF9108951F9366
:100A5000CF93DF93EC01162F66E0DCDD482F497F52
:100A6000133009F40CC0123011F4446009C0113085
:100A700011F4426005C0112319F0143009F44660E6
:100A800066E0CE011DDEDF91CF911F9108950F9397
:100A90001F93CF93DF93EC01062F66E0BBDD9885B3
:100AA0009E7F182F177D023019F49887106205C0B9
:100AB00091609887013009F41860412F66E0CE01FB
:100AC000FFDD66E0CE01A6DD811731F088858E7FDF
:100AD000888780E090E002C081E090E0DF91CF91D4
:100AE0001F910F9108951F93CF93DF93EC01162F61
:100AF00060E090DD482F437F112329F0113011F47D
:100B0000486001C04C6060E0CE01DADDDF91CF913A
:100B10001F910895CF93DF93EC0181E0888780E2F5
:100B200089871B861C861D861E861F861A86D09383
:100B30009000C0938F0080E03CDD88E99AE3019744
:100B4000F1F74FE464E0CE01BBDD63E0CE017FDF6F
:100B500062E0CE019CDF892B19F08885826088874E
:100B600060E0CE0194DF62E0CE01BDDF40E06CE1E9
:100B7000CE01A6DD40E767E0CE01A2DD6CE4CE0148
:100B800032DFCE010CDECE0115DEDF91CF9108956C
:100B9000CF93DF93EC0160E03DDD482F426060E0E1
:100BA000CE018EDDDF91CF910895EF92FF920F93EA
:100BB0001F93CF93DF93EC018B01E42E60E02ADDDD
:100BC000F82E482F4C7F426060E0CE0179DDF1FCC9
:100BD00004C084E991E10197F1F74E2DB801CE01EF
:100BE00087DD81E0E6DC8CE38A95F1F780E0E1DCEB
:100BF000CDB7DEB7E6E0F7C1EF92FF920F931F93F8
:100C0000CF93DF93EB018A01790140E767E058DD7C
:100C1000982F90729883982F9071F8019083807428
:100C2000F7018083CDB7DEB7E6E0DDC1A3E0B0E039
:100C3000EBE1F6E0BAC18C01B8DFDD24DA9438EBE1
:100C4000E32E3BE0F32E21E0AE014F5F5F4F68E003
:100C5000C801C2DCF7013197F1F7982F907329F0A2
:100C6000F801908594FD1FC003C0DA9461F7F8CFB6
:100C70009E012F5F3F4FAE014E5F5F4FBE016D5F24
:100C80007F4FC801B9DFFB808981882309F119C032
:100C900021E0AE014F5F5F4F68E0C8019DDCF601C7
:100CA0003197F1F707C093E0E92EF12C28EBC22E23
:100CB0002BE0D22E86FDDCCFF1E0EF1AF10841F7F0
:100CC000D7CFC80197DEF80182878085846080874E
:100CD00081E090E0FF2011F080E090E02396E8E0D2
:100CE00080C1A1E0B0E0E6E7F6E062C18C01FC0162
:100CF0008181813041F008F475C0853021F1863062
:100D000009F07FC03BC0809162009091630002DFD8
:100D1000809162009091630083DEF801628180918E
:100D20006200909163005FDEF80163818091620050
:100D300090916300ACDEF801648180916200909133
:100D4000630085DE5EC0F80122818091620090918F
:100D50006300222351F046E451E061E0DDDD809143
:100D600062009091630062DD4CC07EDD61EC70E05A
:100D70008091620090916300B4DD43C083E3F82E5C
:100D800000E315E7BE016F5F7F4F80916200909195
:100D9000630076DD892BF9F085B394E0892785BB64
:100DA000809162009091630025DE182F482F66EC39
:100DB00070E0809162009091630087DD21E0892BD3
:100DC00009F020E02093910026EC30E03093A6005B
:100DD0002093A50025C0C8010197F1F7FA9491F678
:100DE00010E01EC0E6ECF0E0F093A600E093A50052
:100DF00001900020E9F73197E65CF0401E2F1F5F5D
:100E00000FC0F80181818093920086819781909331
:100E100094008093930010929600109295001FEF1B
:100E2000812F2196E5E0E0C00F931F93CF93DF93CE
:100E3000062F10E0C0919500D0919600A801BC014A
:100E4000CE018A539F4FDED0C00FD11FD0939600A2
:100E5000C09395008091930090919400C817D90792
:100E600009F044C080919200833031F08730A1F0C6
:100E7000823009F03FC006C085E0E6ECF0E0A1EC6E
:100E8000B0E005C085E0E6ECF0E0A6E4B1E001905A
:100E90000D928A95E1F72EC01FE004E0C8E9DAE37D
:100EA000809162009091630073DE61EC70E080914C
:100EB00062009091630015DD4091950066EC70E052
:100EC0008091620090916300B1DE95B3902795BB4D
:100ED000FE013197F1F7882359F0115008F769E8BE
:100EE00070E086EC90E097D081E007C080E005C01C
:100EF0001123A9F366E870E0F4CFDF91CF911F9141
:100F00000F91089584E084BB8FEF85BB81BB84EC97
:100F100099E02CE231E0F9013197F1F70197D9F727
:100F200011BA08958091620090916300F3DD809181
:100F300062009091630074DD4FE06FE08091620089
:100F40009091630047DD24DB089508958FB9779B66
:100F5000FECF8FB10895892B11F0C09A0895C098E3
:100F60000895892B11F0C29A0895C298089588E1D6
:100F70000FB6F89481BD11BC0FBEB89ABA9ABC984E
:100F800087B38C6287BB88B38C6388BB80E58DB9DF
:100F900081E08EB908952F923F924F925F926F92A7
:100FA0007F928F929F92AF92BF92CF92DF92EF92F9
:100FB000FF920F931F93CF93DF93CDB7DEB7CA1B7A
:100FC000DB0B0FB6F894DEBF0FBECDBF09942A88A5
:100FD000398848885F846E847D848C849B84AA844D
:100FE000B984C884DF80EE80FD800C811B81AA81DA
:100FF000B981CE0FD11D0FB6F894DEBF0FBECDBFA5
:10100000ED010895FB01DC0102C001900D924150F9
:101010005040D8F70895FB01DC0101900D920020AB
:0A102000E1F708955BC8F894FFCFD4
:10102A005AFF6400AB07B107A507A6070000000036
:10103A00000000000A0B0C0D0E0F111213141516E6
:0E104A000102040810204F4B004641494C00A3
:00000001FF
