:10000000DDC05DC2F6C0F5C0F4C0F3C0F2C0F1C0FF
:10001000F0C0EFC0EEC0EDC0ECC0EBC0EAC0E9C07C
:10002000E8C0E7C0E6C0090212000101008005092E
:10003000040000000000000012011001FF00000891
:10004000030431C60501010200011A0369003200F0
:1000500063002D00740069006E0079002D007500AA
:10006000730062001A03540069006C006C002000E9
:100070004800610072006200610075006D000403B9
:1000800009040100FF8E4932432064657669636587
:100090002061742061646472657373203078257800
:1000A0000A005365747570202578202578202578FE
:1000B0002025780A007265717565737420666F7209
:1000C0002064656C617920256475730A0069326368
:1000D000202573206174203078253032782C206CF4
:1000E000656E203D2025640A004932432072656117
:1000F000643A2061646472657373206572726F7212
:1001000020402025780A0072656164202564206201
:10011000797465732C202564206578700A006578F1
:100120006365656473210A0064617461203D202564
:10013000780A006E6F7420696E2061636B2073749F
:100140006174650A0077726974652025642062799C
:100150007465732C202564206578700A00657863C7
:1001600065656473210A0064617461203D2025780F
:100170000A007772697465206661696C65640A00BB
:100180006E6F7420696E2061636B20737461746597
:100190000A006932632D74696E792D757362202DA2
:1001A0002028632920323030362062792054696C4F
:1001B0006C204861726261756D0A000011241FBED7
:1001C000CFE5D4E0DEBFCDBF10E0A0E6B0E0E4ECC8
:1001D000F4E102C005900D92AA37B107D9F710E0FB
:1001E000AAE7B0E001C01D92A33BB107E1F767D6D3
:1001F00067C906CF1F93CF93DF9360919300662367
:1002000009F03DC08091600084FF26C080916100AC
:100210008F3F11F1C82F893008F055C08C1B809397
:10022000610080917A0080FD4CC0DBE48F5F809399
:100230007A0087FD5AC0CC2309F07AC014E084E824
:1002400090E06C2FADD2C83019F08FEF8093610031
:10025000D0938300109360009AE080B3847159F4C6
:100260009150D9F71092940010928E008FEF60E0B9
:1002700070E040E0ACD2DF91CF911F910895809162
:100280009000CCE0D0E0C81BD109C956DF4F6350C5
:1002900080918F008D3201F180917A0087FD22C01C
:1002A000CE0152D58F3F09F483C090E0882309F432
:1002B0007DC080E090937A0080936100109293005B
:1002C000A1CFD3ECB3CFC8E08C1B809361008091A9
:1002D0007A0080FFAACFF5CF8AE58093600068306E
:1002E00009F448C090E880E0E5CF2091910030917A
:1002F000920086FF2EC0CC23A1F04C2F415050E03D
:10030000C9010196840F951FF901A4E8B0E064913A
:100310006D933196E817F907D1F74F5F5F4F240FC0
:10032000351F30939200209391001C2F1C5F87CFC4
:1003300084E890E06C2F62D4C82F893008F490C014
:100340008FEF809361001EE1D093830010936000D3
:1003500083CFCC2331F3D9014C2F415050E0CA0157
:100360008B579F4FE4E8F0E06D916193E817F90730
:10037000D9F7D3CF8881807671F58CE890E0109220
:100380008C0029812223D1F410928D009093920049
:100390008093910090E882E02F81222309F08ACF98
:1003A0002E81281708F086CF822F84CF8FEF82CF3F
:1003B0008EE18093600090E08FEF7CCF2530C1F01C
:1003C0002630E1F0283051F1293011F12A3079F14D
:1003D00090E880E0E1CFCE01F1D28F3F09F043C039
:1003E000988197FD02C090E065CF8E8190E062CF4A
:1003F0008A818093940090E880E0CECF8B81813019
:1004000031F18230D9F0833081F190EC80E0C4CFBB
:100410008A818093960090E880E0BECF86E990E0E4
:10042000909392008093910090E881E0B5CF9093F3
:1004300092008093910090E881E0AECF86E290E058
:10044000909392008093910090EC82E1A5CF88E395
:1004500090E0909392008093910090EC82E19CCF89
:10046000182F1C5FECCE90E897CF8A81882349F43F
:100470008EE790E0909392008093910090EC84E05E
:100480008BCF813061F0823009F0BFCF8AE490E0F9
:10049000909392008093910090EC8AE17DCF84E666
:1004A00090E0909392008093910090EC8AE174CF59
:1004B00085B7836085BF8BB780648BBF0895CF936A
:1004C000CFB7CF93829BFECF829B09C0829B07C090
:1004D000829B05C0829B03C0829B01C09EC0DF93AC
:1004E000C0919000DD27C956DF4F829B02C0DF918B
:1004F000EBCF2F930F931F9300B32FEF02FB20F945
:100500004F933F9310B34FEF012702FB21F93BE0DC
:1005100031C04E7F012F10B3216028C0102F4D7FB6
:100520002260000000B329C04B7F2460012F00002F
:1005300010B32BC010B3477F28602AC04F7E00B392
:1005400020612CC04F7D10B320622FC04F7B00B3C1
:10055000206432C0422700B349934FEF00001027B8
:1005600012FB20F910B31471A9F1297F91F2012730
:1005700002FB21F900B3237F89F23150F0F11027FB
:1005800012FB22F910B3277E79F2012702FB23F92F
:100590002F7C81F200B3102712FB24F92F7971F21E
:1005A00000C010B3012702FB25F92F7359F200C0D8
:1005B00000B3102712FB26F9223040F200C010B31E
:1005C000012702FB27F9243028F64F77206810B363
:1005D0000000F9CF3B503195333010E41ABFB8F02A
:1005E000C31BD0400881033C41F10B3431F1198128
:1005F000412F1F7720918E00121731F4093691F1A7
:100600000D3279F0013E69F02227209395003F9149
:100610004F911F910F912F91DF91CF91CFBFCF912C
:100620001895009395003F914F911F910F912F9135
:10063000DF91CAB7C6FD46CFF0CF009195000023E9
:1006400031F310919300112349F534304AF130937E
:10065000930000938F00109190003BE0311B30938A
:1006600090001EC0009193000130C4F40AE530915F
:10067000600034FD17C000936000C3E8D0E016C0EE
:10068000052710E002BB1FC0052722C0052727C091
:1006900005272CC0052710E002BB33C04AE503C084
:1006A00042ED01C0432FC4E1D0E032E011B3146148
:1006B000929A02B311BB5F9354E120E820FF052713
:1006C00002BB279517951C3FD8F620FF05272795D5
:1006D00002BB17951C3FC0F620FF052727951795ED
:1006E00002BB1C3F98F620FF0527279517951C3F56
:1006F00002BB70F600C0499120FF052702BB279579
:1007000017951C3F38F620FF0527279502BB179544
:100710001C3F38F520FF05272795179502BB1C3F86
:1007200010F520FF0527279517951C3F02BBE8F41D
:10073000242F3A9519F60B7E5F9102BB00C01091F1
:100740009400C651D04011F010938E0010E41ABFEF
:10075000046011B31B7E402F4B7E02BB11BB42BB1A
:1007600056CF0527D3CF0527D8CF0527DDCFA82F14
:10077000B92F8FEF9FEF41E050EA615070F02D915B
:1007800038E0722F782796958795269570FF02C0DE
:10079000842795273A95A9F7F0CF809590950895ED
:1007A000E6DF8D939D930895982F92959F709A30D0
:1007B00008F0995D905D5D9BFECF9CB98F708A308B
:1007C00008F0895D805D5D9BFECF8CB90895AF9286
:1007D000BF92DF92EF92FF920F931F93CF93DF931D
:1007E0000F92CDB7DEB78B014983DEDF49815D9B78
:1007F000FECF8AE38CB94423C1F058010894A11CB0
:10080000B11C41507501E40EF11C80E2D82E5D9BB5
:10081000FECFDCB8F80180818501C6DFAE14BF04CD
:1008200021F00894A11CB11CF2CF5D9BFECF8DE09E
:100830008CB95D9BFECF8AE08CB90F90DF91CF9190
:100840001F910F91FF90EF90DF90BF90AF900895B0
:10085000CF93C82F8A3039F05D9BFECFCCB980E0B2
:1008600090E0CF9108958DE0F3DFF6CFE09168003E
:10087000F09169003197F1F7882359F0A598AD9A66
:100880009D9BFECF80916A0090916B000197F1F7DC
:100890000895A59AAD98F6CF882319F4A49AAC9838
:1008A0000895A498AC9A089580E0F6DF81E0DEDF39
:1008B00081E0F2DF08950F931F93CF93DF93082F0A
:1008C00010E0C7E0D0E00BC081E0E6DF81E0CEDFE2
:1008D00080E0CCDF21978FEFCF3FD80761F0C801D0
:1008E0000C2E02C0959587950A94E2F780FDECCF17
:1008F00080E0D2DFEBCF81E0CFDF81E0B7DFC3B3B1
:1009000080E0B4DF81E0C4FD80E0DF91CF911F91F2
:100910000F9108951F93CF93DF93182F81E0BCDFD1
:1009200080E0A4DFD8E0C0E081E0A0DF83B3CC0F9B
:1009300084FDC16080E09ADFD150B1F7112369F4E2
:1009400080E0AADF81E092DF80E090DF81E0A4DF39
:100950008C2FDF91CF911F91089581E09DDFF2CF21
:100960000F931F93CF93DF93C0E0D0E006E810E031
:1009700005C09ADF2196CF37D105D9F080E08CDF12
:1009800080E074DF8C2F880F96DF882391F300D0EE
:1009900000D0EDB7FEB712830183D483C383C9D2DD
:1009A0000F900F900F900F907FDF2196CF37D105DA
:1009B00029F7DF91CF911F910F9108950F931F9306
:1009C000CF93DF93EC010BE710E0109392000093BC
:1009D00091002DB73EB72A5030400FB6F8943EBF75
:1009E0000FBE2DBFEDB7FEB7319682EA90E0ADB7EE
:1009F000BEB712969C938E9311978881828313823F
:100A00008981848315828A81868317828B8180877E
:100A100011868FD2EDB7FEB73A960FB6F894FEBFA7
:100A20000FBEEDBF8981823009F484C0833008F4A1
:100A30005AC0833009F4ABC0883008F069C08A819D
:100A400080FFBAC022E630E0EDB7FEB738970FB6A8
:100A5000F894FEBF0FBEEDBF31968DEC90E0ADB7C0
:100A6000BEB712969C938E931197338322838C8109
:100A70009D81958384838E819F819783868359D2BC
:100A80000C81000F8A81EDB7FEB738960FB6F89447
:100A9000FEBF0FBEEDBF80FD0160898180FD04C0F7
:100AA00081E0FADE81E0E2DE80E0F6DE80E0DEDE9C
:100AB000802F01DF882309F482C081E080937F00CA
:100AC0008E819F8190938100809380002981209363
:100AD000820021FF1BC00097B1F08FEFDF91CF9113
:100AE0001F910F9108958823C9F0813089F4C801BE
:100AF00062E870E044E050E00CD284E0DF91CF91F6
:100B00001F910F910895D0DE8E819F81009729F764
:100B100080E0DF91CF911F910F9108958A8180939A
:100B20007B008B8180937C0082E0DF91CF911F91CD
:100B30000F9108958A819B8190936B0080936A0046
:100B4000009779F581E090E090936B0080936A00C4
:100B500021E030E0309369002093680000D000D09D
:100B600025EB30E0ADB7BEB712963C932E931197AC
:100B700014969C938E931397DCD10F900F900F9047
:100B80000F9080E0DF91CF911F910F910895809198
:100B90007F0080937B0081E0DF91CF911F910F91C7
:100BA00008959C013695279530936900209368003D
:100BB0002115310599F6CCCF25E630E045CF00D0A0
:100BC00000D0EDB7FEB7319629EE30E0ADB7BEB735
:100BD00012963C932E93119702831382AAD182E03E
:100BE00080937F0010928100109280000F900F90F0
:100BF0000F900F9059DE8E819F8188CFBF92CF9248
:100C0000DF92EF92FF920F931F93CF93DF938C01AC
:100C1000B62E00D000D000D0EDB7FEB7319687E0F9
:100C200091E0ADB7BEB712969C938E9311976283F5
:100C3000138280918000909181009583848379D183
:100C4000EDB7FEB736960FB6F894FEBF0FBEEDBFF8
:100C500080917F008130D9F000D083E391E0EDB73F
:100C6000FEB79283818365D10F900F90C80160E039
:100C700070E04B2D50E056D18B2DDF91CF911F911D
:100C80000F91FF90EF90DF90CF90BF9008952B2DA4
:100C900030E080918000909181008217930708F4E2
:100CA00044C0BB20A9F1E80121968B2D81507E0123
:100CB000E80EF11C58E2C52E51E0D52E01C0219658
:100CC000209180003091810021503040309381008C
:100CD0002093800081E02115310509F080E01ADEC3
:100CE000F801808300D000D0EDB7FEB73196ADB7E4
:100CF000BEB71296DC92CE9211978283138219D1DD
:100D00008E010F900F900F900F90CE15DF05B9F662
:100D10008091820081FFB0CF80918000909181000E
:100D2000009709F0A9CFC0DDA7CF00D08EE191E0F8
:100D3000ADB7BEB712969C938E931197FAD0B09030
:100D400080000F900F90ADCFAF92BF92CF92DF9205
:100D5000EF92FF920F931F93CF93DF938C01A62EF8
:100D600000D000D000D0EDB7FEB7319685E491E019
:100D7000ADB7BEB712969C938E9311976283138280
:100D8000809180009091810095838483D2D0EDB7CB
:100D9000FEB736960FB6F894FEBF0FBEEDBF80913A
:100DA0007F008130E1F000D080E891E0EDB7FEB740
:100DB00092838183BED00F900F90C80160E070E0F5
:100DC0004A2D50E0AFD08A2DDF91CF911F910F9126
:100DD000FF90EF90DF90CF90BF90AF9008952A2DB5
:100DE00030E080918000909181008217930708F491
:100DF00055C0AA2009F461C0E80121968A2D8150CE
:100E00007E01E80EF11CBB2467E6C62E61E0D62EFB
:100E100001C021968091800090918100019790936C
:100E200081008093800000D000D0EDB7FEB73196EE
:100E3000ADB7BEB71296DC92CE921197D8018C91C5
:100E40008283138276D0F80180818E010F900F90FB
:100E50000F900F9030DD882311F4BB24B394CE158E
:100E6000DF05B9F68091820081FF06C08091800085
:100E700090918100009781F0BB2009F4A4CF00D0AD
:100E800082E791E0ADB7BEB712969C938E9311970F
:100E900050D00F900F9097CF07DDEECF00D08DE5AB
:100EA00091E0ADB7BEB712969C938E93119741D047
:100EB000A09080000F900F909CCFBB24D3CF2EE04A
:100EC00088E190E00FB6F894A89581BD0FBE21BDD2
:100ED000539A82E089B98CE690E09093B0008093B9
:100EE000AF0000D082E991E0EDB7FEB79283818335
:100EF00020D0A498AC9AA598AD9A10928100109237
:100F000080000F900F902CDDD3DA7894A89572D9D9
:100F1000FDCFFB01DC0102C005900D924150504015
:100F2000D8F70895DC0101C06D9341505040E0F7BF
:100F30000895A0E0B0E0EEE9F7E09BC2FE0135962F
:100F4000619171918091AF009091B000DC01139696
:100F50002C911397286013962C93AF010AD0E0913F
:100F6000AF00F091B0002381277F23832096E2E039
:100F70009CC2ADE0B0E0EEEBF7E06BC23C017D87D8
:100F80006C875A01FC0117821682838181FFBCC1E4
:100F90003FE3C32E2E010894411C511CF3019381A1
:100FA000EC85FD8593FD859193FF8191FD87EC870D
:100FB000882309F4A5C1853241F493FD859193FFFF
:100FC0008191FD87EC87853221F490E0B301B7D1A0
:100FD000E5CFEE24DD2410E01032B0F48B3269F05E
:100FE0008C3228F4803251F0833271F40BC08D3290
:100FF00039F0803349F411602CC01260146029C0AC
:10100000186027C0106125C017FD2EC0282F20535F
:101010002A3098F416FF08C08E2D880FE82EEE0CAB
:10102000EE0CE80EE20E15C08D2D880FD82EDD0CCB
:10103000DD0CD80ED20E10620CC08E3221F416FDDB
:101040005FC1106406C08C3611F4106802C0883687
:1010500059F4EC85FD8593FD859193FF8191FD8782
:10106000EC87882309F0B8CF982F9554933018F067
:101070009052933030F424E030E0A20EB31EC982C7
:101080000FC0833631F0833781F0833509F056C0C5
:1010900021C0F5018081898322E030E0A20EB31ED9
:1010A00021E0E22EF12C420113C092E0292E312CD6
:1010B0002A0C3B1CF5018080918016FF03C06E2D29
:1010C00070E002C06FEF7FEFC4012ED17C015101AF
:1010D0001F7714C082E0282E312C2A0C3B1CF5010E
:1010E0008080918016FF03C06E2D70E002C06FEF0C
:1010F0007FEFC4010ED17C011068510113FD1AC0AD
:1011000005C080E290E0B3011AD1DA948D2D90E011
:10111000E816F906B0F30EC0F40117FD859117FF2C
:1011200081914F0190E0B3010AD1D110DA94089473
:10113000E108F108E114F10479F7DFC0843611F019
:10114000893649F5F50117FF07C080819181A28199
:10115000B38124E030E008C080819181AA2797FD07
:10116000A095BA2F22E030E0A20EB31E012F0F7619
:10117000B7FF08C0B095A095909581959F4FAF4F50
:10118000BF4F0068BC01CD01A2012AE030E003D1CD
:10119000F82EF4183EC0853721F41F7E2AE030E097
:1011A00020C0197F8F36A9F0803720F4883509F0E8
:1011B000A7C00BC0803721F0883709F0A1C001C05B
:1011C000106114FF09C0146007C014FF08C0166046
:1011D00006C028E030E005C020E130E002C020E198
:1011E00032E0F50117FF07C0608171818281938130
:1011F00044E050E006C06081718180E090E042E010
:1012000050E0A40EB51EA201C6D0F82EF418012F8E
:101210000F7706FF09C00E7FFE1430F404FF06C0EE
:1012200002FD04C00F7E02C01F2D01C01E2D802FA5
:1012300090E004FF0CC0FE01EF0DF11D2081203372
:1012400011F4097E09C002FF06C01E5F05C0867842
:101250009070009709F01F5F802E992403FD11C044
:1012600000FF0CC0EF2C1D1548F4ED0CE11A1D2DEC
:1012700005C080E290E0B30162D01F5F1D15C8F386
:1012800004C01D1510F4D11A01C0DD2484FE0EC067
:1012900080E390E0B30153D082FE1DC081FE03C005
:1012A00088E590E010C088E790E00DC0C401867822
:1012B0009070009781F081FC02C080E201C08BE257
:1012C00007FD8DE290E0B3013AD005C080E390E0E5
:1012D000B30135D0EA94FE14C8F3FA94F201EF0D8D
:1012E000F11D808190E0B3012AD0FF20B1F705C045
:1012F00080E290E0B30123D0DA94DD20C9F74ECE2E
:10130000F3018681978102C08FEF9FEF2D96E2E176
:10131000BCC0FC010590615070400110D8F7809569
:1013200090958E0F9F1F0895FC01615070400190B1
:101330000110D8F7809590958E0F9F1F08950F93F9
:101340001F93CF93DF938C01EB018B8181FF1BC037
:1013500082FF0DC02E813F818C819D812817390726
:1013600064F4E881F9810193F983E88306C0E88594
:10137000F985802F0995009731F48E819F81019620
:101380009F838E8302C00FEF1FEFC801DF91CF91C3
:101390001F910F910895FA01AA27283051F12031A9
:1013A00081F1E8946F936E7F6E5F7F4F8F4F9F4FF9
:1013B000AF4FB1E03ED0B4E03CD0670F781F891F3B
:1013C0009A1FA11D680F791F8A1F911DA11D6A0F09
:1013D000711D811D911DA11D20D009F468943F91BC
:1013E0002AE0269F11243019305D3193DEF6CF01BB
:1013F0000895462F4770405D4193B3E00FD0C9F781
:10140000F6CF462F4F70405D4A3318F0495D31FDED
:101410004052419302D0A9F7EACFB4E0A695979540
:10142000879577956795BA95C9F700976105710516
:1014300008959B01AC010A2E069457954795379560
:101440002795BA95C9F7620F731F841F951FA01DBA
:1014500008952F923F924F925F926F927F928F9258
:101460009F92AF92BF92CF92DF92EF92FF920F9333
:101470001F93CF93DF93CDB7DEB7CA1BDB0B0FB63D
:10148000F894DEBF0FBECDBF09942A8839884888FA
:101490005F846E847D848C849B84AA84B984C88490
:1014A000DF80EE80FD800C811B81AA81B981CE0F87
:1014B000D11D0FB6F894DEBF0FBECDBFED0108956C
:0414C000F894FFCFCE
:1014C4005AFF72640077720005000A0000000002EF
:0A14D40000000000280400000000E2
:00000001FF
