:10000000CFC009C1EEC0EDC0ECC0EBC0EAC0E9C092
:10001000E8C0E7C0E6C0E5C0E4C0E3C0E2C0E1C0BC
:10002000E0C0DFC0DEC00902190001010080320912
:1000300004000001030000000705810308003212DC
:10004000011001FF000008501D326003000102038F
:10005000010C03770069006E00640079001E0375CF
:10006000004900530050002D0066006C00610073D1
:10007000006800700072006F0067001E0377007751
:100080000077002E006E00630072006D006E007439
:10009000002E006F0072006700040309046E616E99
:1000A00000696E660000407A10F35A00A0724E1884
:1000B000090010A5D4E80000E87648170000E40B1A
:1000C00054020000CA9A3B000000E1F505000080E0
:1000D000969800000040420F000000A0860100003A
:1000E00000102700000000E803000000006400008A
:1000F0000000000A00000000000100000000002CC9
:1001000076D888DC674F0823DFC1DFAE59E1B1B78D
:1001100096E5E3E453C63AE651997696E8E6C2845A
:1001200026EB898C9B62ED407C6FFCEFBC9C9F4072
:10013000F2BAA56FA5F490055A2AF75C936B6CF997
:10014000676DC11BFCE0E40D47FEF520E6B500D06D
:10015000ED902E0300943577050080841E08000082
:10016000204E0A000000C80C333333330F986E1250
:10017000831141EF8D2114893BE65516CFFEE6DB56
:1001800018D1844B381BF77C1D901DA4BBE42420A0
:100190003284725E228100C9F124ECA1E53D270082
:1001A00011241FBECFE5D4E0DEBFCDBF10E0A0E636
:1001B000B0E0E4EDF2E102C005900D92A63AB1077D
:1001C000D9F720E0A6EAB0E001C01D92A53DB20734
:1001D000E1F7F89499D257D378948FD250D14CD17B
:1001E00076C80ECFA82FB92F80E090E041E050EA0A
:1001F000609530E009C02D9182279795879510F082
:1002000084279527305EC8F36F5FA8F30895EADF6F
:100210008D939D930895CF93CFB7CF93C395829B32
:10022000E9F7829B09C0829B07C0829B05C0829B25
:1002300003C0829B01C0A3C0DF93C091B800DD273B
:10024000C154DF4F829B02C0DF91EBCF2F930F93FE
:100250001F9300B32FEF02FB20F94F933F9310B38E
:100260004FEF012702FB21F93BE031C04E7F012F08
:1002700010B3216028C0102F4D7F2260000000B312
:1002800029C04B7F2460012F000010B32BC010B396
:10029000477F28602AC04F7E00B320612CC04F7D6D
:1002A00010B320622FC04F7B00B3206432C04227BE
:1002B00000B349934FEF0000102712FB20F910B351
:1002C0001471C9F1297F91F2012702FB21F900B3D2
:1002D000237F89F2315058F1102712FB22F910B315
:1002E000277E79F2012702FB23F92F7C81F200B3EC
:1002F000102712FB24F92F7971F200C010B30127E7
:1003000002FB25F92F7359F200C000B3102712FB2E
:1003100026F9223040F200C010B3012702FB27F972
:10032000243028F64F77206810B30000F9CF10E48E
:100330001ABF002719C03B503195C31BD04010E4B1
:100340001ABF0881033CF9F00B34E9F02091B600A4
:100350001981110F1213EDCF4A81441F093641F163
:100360000D3211F0013E29F70093BD003F914F91EE
:100370001F910F912F91DF91CAB7C6FD4FCFCF913B
:10038000CFBFCF9118952091BD00222379F3109112
:10039000BB00112321F5343022F13093BB002093B0
:1003A000B7001091B8003BE0311B3093B80019C082
:1003B0000091BB0001309CF40AE54F7081F430914C
:1003C000620034FD10C000936200CBEAD0E00FC0A1
:1003D0002795A8F45150A9F4220F0000F9CF4AE55F
:1003E00003C042ED01C0432FC4E1D0E032E011B3BD
:1003F0001461929A11BB02B320E414E15F930127C8
:1004000056E002BB279520F4515021F4220FF9CF7A
:10041000012756E000003B5A02BBD0F2279528F492
:10042000515029F4220F0000F9CF012756E02795FB
:1004300002BB20F4515021F4220FF9CF012756E0DE
:100440002991332302BB21F60B7E1091BC00110FC2
:10045000C651D04002BB11F01093B60010E41ABF91
:10046000046011B31B7E402F4B7E5F9100C000C023
:1004700002BB11BB42BB7ACF80E090E008951F938E
:10048000CF93DF936091BB00635067FDC1C0809143
:10049000B800CCE0D0E0C81BD109C154DF4F809137
:1004A000B7008D3209F0A0C0683009F0AFC083EC0E
:1004B0008093AB008AE5809362001092A600888149
:1004C000807621F0CE0129D19C0176C09A811092CC
:1004D000B4008981811107C01092B50084EB90E0CF
:1004E00022E030E065C0853019F49093BC004EC026
:1004F000863009F045C08B81813049F48FE390E06C
:100500009093BA008093B90022E130E035C0823088
:1005100049F486E290E09093BA008093B90029E113
:1005200030E02AC0833031F5911109C089E990E0AB
:100530009093BA008093B90024E030E01DC0913060
:1005400019F48BE790E004C0923049F48DE590E017
:100550009093BA008093B9002EE130E00DC0933043
:1005600049F481E590E09093BA008093B9002CE0C3
:1005700030E002C020E030E080E48093A6001CC0A0
:10058000883091F0893039F49093BE0084EB90E08C
:1005900020E030E00DC021E030E08A3011F020E0B2
:1005A00030E084EB90E004C08EEB90E021E030E09E
:1005B0009093BA008093B9002F3F8FEF380749F42A
:1005C000888187FF02C02E813F8180E88093A6004A
:1005D00006C08E819F818217930708F49C01309397
:1005E00061002093600012C08091A60087FF0EC0BA
:1005F000CE01E1D08F3F21F48EE18093620006C0EE
:10060000882321F010926100109260001092BB00CC
:100610008091620084FF63C08091600090916100CE
:100620008F3F2FEF920709F45AC0BC018930910522
:1006300010F068E070E0861B970B90936100809348
:1006400060008091AB0098E889278093AB00162F5B
:10065000662371F18091A60087FF07C08CEA90E0C5
:10066000C6D0182F893090F523C0E091B900F091E1
:10067000BA0086FF0AC0ACEAB0E0862F8A0F9491D8
:100680009D9331968A13FBCF0FC0EF01ACEAB0E027
:10069000862F8A0F9E012F5F3F4FF90198819D930E
:1006A0008A1711F0E901F6CFF093BA00E093B90090
:1006B000612F8CEA90E0ABDD1C5F1C3071F02FEFF6
:1006C0003FEF309361002093600007C08FEF9FEFF2
:1006D00090936100809360001EE11093620084E1BA
:1006E00090B3947131F48150D9F71092BC001092FC
:1006F000B600DF91CF911F91089585B7826085BFC5
:100700008BB780648BBF089580917D0090917E00AF
:100710009093A8008093A7000895CF93DF93DC0106
:1007200011968C911197811109C083E690E0909306
:10073000BA008093B9008AE190E03AC0843059F45D
:1007400016968D919C9117979093AA008093A9007B
:100750008FEF9FEF2DC0833059F4E091A700F09107
:10076000A8000190F081E02D12968C9109951EC091
:10077000813071F4C091A700D091A800EA81FB817B
:1007800012968D919C9113970995998788870EC031
:10079000823061F48091A7009091A8000896909310
:1007A000BA008093B90082E090E002C080E090E05F
:1007B000DF91CF9108952091A9003091AA00261BC6
:1007C00031093093AA002093A900615038F0FC0150
:1007D0002191CF012FB9779BFECFF7CF81E02091F8
:1007E000A9003091AA00232B09F080E00895262F5C
:1007F000FC01215030F01FB8779BFECF8FB1819361
:10080000F8CF862F08956150710930F0FC012081E6
:100810002FB9779BFECFF7CF0895680F791F861702
:10082000970741F01FB8779BFECF2FB1FC012193B2
:10083000CF01F5CF089529E830E0E0E0F0E02C5F4B
:100840003F4FD90114974D915C918417950720F47F
:100850003196E730F10599F7C2988CE287BBEE0F2D
:10086000FF1FEE0FFF1FE757FF4F838180658DB994
:1008700082818EB9808191810895882311F0C29A76
:100880000895C298089584E084BB8FEF85BB81BB37
:100890002FEB87E299E0215080409040E1F700C0C3
:1008A000000011BA8FEF9FEFC6DF0895A3E1B0E01B
:1008B000EBE5F4E057C37C011B016A01FC011782E0
:1008C0001682838181FF49C3BE016F5F7F4F4B0159
:1008D000F7019381F10193FD859193FF81911F01B0
:1008E000882309F436C3853239F493FD859193FF4B
:1008F00081911F01853231F4B70190E058D456013F
:100900006501E6CF10E0512C20E02032A0F48B32BC
:1009100069F030F4803259F0833269F420612CC0E0
:100920008D3239F0803339F4216026C02260246092
:1009300023C0286021C027FD27C030ED380F3A3092
:1009400078F426FF06C0FAE01F9F300D1124132F04
:1009500013C06AE0569E300D1124532E20620CC045
:100960008E3221F426FDF5C2206406C08C3611F4C7
:10097000206802C0883641F4F10193FD859193FF10
:1009800081911F018111C1CF9BEB980F933018F417
:100990002061805E06C09BE9980F933008F09AC1F1
:1009A0002F7E26FF16E02F73722E853621F4F22F4C
:1009B000F0647F2E08C0863621F4622F6068762EA0
:1009C00002C01111115077FE07C01C3348F44424B3
:1009D0004394410E27E00BC0183030F4212F06C09D
:1009E00027E04CE3442E03C027E017E0412C5601DA
:1009F00074E0A70EB11CF601608171818281938140
:100A0000042DA401E6D26C01098100FF02C003FF9E
:100A100006C071FC07C072FC08C0612C08C03DE232
:100A2000632E05C02BE2622E02C090E2692E802F59
:100A30008C7081F1662011F084E001C083E085159F
:100A400010F0512C0AC0581A73FC07C0B70180E29D
:100A500090E0ADD35A94D1F7F4CF662021F0B701DE
:100A6000862D90E0A4D303FD03C001EA10E002C08C
:100A70000DE910E0F72DF0717F2EF80184918823A5
:100A800009F45EC271108052B70190E090D30F5FFD
:100A90001F4FF3CF77FE0FC04C0C04FF04C08A81B8
:100AA000813309F44A94141474F5F8E0F41578F5D8
:100AB00088E0482E2CC076FC2AC0812F90E08C154F
:100AC0009D059CF06CEFC6166FEFD60674F0772D7F
:100AD0007068772E0AC0E2E0F0E0EC0FFD1FE10F36
:100AE000F11D8081803319F411501111F4CF77FE7C
:100AF0000EC044244394410E812F90E0C816D906BD
:100B00002CF41C1904C04424439401C010E077FE67
:100B100007C01C141D043CF496012F5F3F4F05C015
:100B200025E030E002C021E030E0662011F02F5FC8
:100B30003F4F112331F0412F50E04F5F5F4F240FA3
:100B4000351F452D50E02417350714F4521A01C003
:100B5000512C872D897041F4552031F0B70180E286
:100B600090E025D35A94F8CF662021F0B701862D66
:100B700090E01DD373FC08C0552031F0B70180E32D
:100B800090E015D35A94F8CF77FE5DC09C2D8D2D43
:100B9000D7FE02C090E080E0692E782E40E050E061
:100BA000C601841991099D878C87960126193709FA
:100BB000280D391D812F90E0EE27FF27E81BF90B48
:100BC000FF87EE87FFEF6F167F0661F4B7018EE2B5
:100BD00090E02B8B3A8B488B598BE9D25989488905
:100BE0003A892B89C614D70454F06C857D85661527
:100BF00077052CF4F901E40FF51F818101C080E332
:100C000071E0671A71084F5F5F4FEE85FF856E16C2
:100C10007F0664F0B70190E02B8B3A8B488B598BA1
:100C2000C6D22B893A8948895989CCCF6C147D0466
:100C300039F49A81963318F4953311F404FF81E363
:100C4000B70190E045C08A81813309F00F7EB7017A
:100C500090E0ADD2111105C074FE16C085E490E09D
:100C600015C0B7018EE290E0A2D282E066246394C0
:100C7000680EF401E80FF11D8081B70190E097D272
:100C8000115051F3862DF2CF85E690E0B7018FD257
:100C9000D7FC05C0C114D10439F404FF05C0D194B8
:100CA000C194D1088DE201C08BE2B70190E07FD200
:100CB00080E36AE0C616D1042CF08F5FFAE0CF1A09
:100CC000D108F7CFB70190E072D2B701C601C09644
:100CD0006ED236C1833631F0833779F0833509F02F
:100CE00054C020C0560172E0A70EB11CF6018081ED
:100CF000898301E010E0640113C05601F2E0AF0EF9
:100D0000B11CF601C080D18026FF03C0612F70E0C6
:100D100002C06FEF7FEFC6012B8B3ED28C012B8977
:100D20002F7714C05601F2E0AF0EB11CF601C0805F
:100D3000D18026FF03C0612F70E002C06FEF7FEF0C
:100D4000C6012B8B1ED28C012B892068722E23FDAD
:100D500018C0852D90E00817190798F4B70180E2B4
:100D600090E025D25A94F5CFF60177FC859177FE75
:100D700081916F01B70190E01AD251105A9401503D
:100D800011090115110581F7DBC0843611F0893690
:100D900049F5560127FF09C0F4E0AF0EB11CF6017A
:100DA00060817181828193810AC0F2E0AF0EB11C33
:100DB000F60160817181882777FD8095982F022F39
:100DC0000F7697FF08C090958095709561957F4F3D
:100DD0008F4F9F4F00682AE030E0A4011AD2C82E3E
:100DE000C8183DC0022F853721F40F7E2AE030E07D
:100DF0001DC0097F8F3691F018F4883559F0A9C0CD
:100E0000803719F0883711F0A4C0006104FF09C0D1
:100E1000046007C024FF08C0066006C028E030E078
:100E200005C020E130E002C020E132E0560107FFBA
:100E300009C0F4E0AF0EB11CF601608171818281BE
:100E4000938108C0F2E0AF0EB11CF60160817181A0
:100E500080E090E0A401DDD1C82EC8180F7706FF0E
:100E60000BC0202F2E7FC11650F404FF0AC002FDD4
:100E700008C0202F2E7E05C0DC2C202F03C0DC2CC8
:100E800001C0D12E24FF0DC0FE01EC0DF11D8081AB
:100E9000803311F4297E09C022FF06C0D394D39475
:100EA00004C0822F867809F0D39423FD12C020FF5E
:100EB00006C01C2DD51418F4150D1D19D52CD514EC
:100EC00060F4B70180E290E02B8B71D1D3942B8931
:100ED000F6CFD51410F45D1801C0512C24FF11C0B9
:100EE000B70180E390E02B8B62D12B8922FF16C0E3
:100EF00021FF03C088E590E002C088E790E0B701D9
:100F00000CC0822F867851F021FD02C080E201C022
:100F10008BE227FD8DE2B70190E049D1C11630F494
:100F2000B70180E390E043D11150F8CFCA94F401A7
:100F3000EC0DF11D8081B70190E039D1C110F6CFE1
:100F4000552009F4DDCCB70180E290E030D15A940D
:100F5000F7CFF7018681978102C08FEF9FEF6396ED
:100F6000E2E11CC02F923F924F925F926F927F926C
:100F70008F929F92AF92BF92CF92DF92EF92FF92A9
:100F80000F931F93CF93DF93CDB7DEB7CA1BDB0B55
:100F90000FB6F894DEBF0FBECDBF09942A883988FA
:100FA00048885F846E847D848C849B84AA84B98401
:100FB000C884DF80EE80FD800C811B81AA81B9810D
:100FC000CE0FD11D0FB6F894DEBF0FBECDBFED0121
:100FD0000895283008F027E03327DA01990F311DF2
:100FE00087FD916000966105710539F432602E5FCE
:100FF0003D9330E32A95E1F708959F3F30F0803824
:101000007105610509F03C5F3C5F3D93913008F04C
:101010008068911DDF93CF931F930F93FF92EF9200
:10102000192F987F9695E92F96959695E90FFF27AA
:10103000E150FF4F99273327EE24FF24A701E70152
:1010400005900894079428F4360FE71EF81E491FF0
:10105000511D660F771F881F991F0694A1F70590F1
:10106000079428F4E70EF81E491F561FC11D770F7D
:10107000881F991F661F0694A1F70590079428F40E
:10108000F80E491F561FC71FD11D880F991F661FD5
:10109000771F0694A1F70590079420F4490F561F77
:1010A000C71FD81F990F661F771F881F0694A9F7BF
:1010B00084911095177041F0D695C795579547952F
:1010C000F794E7941A95C1F7E5EAF0E06894159073
:1010D000159135916591959105907FE27395E11891
:1010E000F10A430B560BC90BD009C0F7E10CF11EF6
:1010F000431F561FC91FD01D7EF4703311F48A950B
:10110000E6CFE894015030F0080F0AF400270217E8
:1011100008F4202F2395022F7A3328F079E37D936A
:101120002A95E9F710C07D932A9589F6069497953C
:101130006795379517951794E118F10A430B560BED
:10114000C90BD00998F023957E9173957A3308F0F6
:1011500070E37C932013B8F77E9170617D9330F03B
:10116000839571E37D9370E32A95E1F71124EF9065
:10117000FF900F911F91CF91DF91992787FD909557
:101180000895FC010590615070400110D8F78095DA
:1011900090958E0F9F1F0895FC0161507040019043
:1011A0000110D8F7809590958E0F9F1F08950F938B
:1011B0001F93CF93DF93182F092FEB018B8181FDB4
:1011C00003C08FEF9FEF20C082FF10C04E815F8170
:1011D0002C813D81421753077CF4E881F9819F01FE
:1011E0002F5F3F4F39832883108306C0E885F98538
:1011F000812F0995892B29F72E813F812F5F3F4F42
:101200003F832E83812F902FDF91CF911F910F91DC
:101210000895FA01AA27283051F1203181F1E8948C
:101220006F936E7F6E5F7F4F8F4F9F4FAF4FB1E0D9
:101230003ED0B4E03CD0670F781F891F9A1FA11DD4
:10124000680F791F8A1F911DA11D6A0F711D811DD5
:10125000911DA11D20D009F468943F912AE0269F9A
:1012600011243019305D3193DEF6CF010895462FF9
:101270004770405D4193B3E00FD0C9F7F6CF462FDA
:101280004F70405D4A3318F0495D31FD4052419343
:1012900002D0A9F7EACFB4E0A69597958795779500
:1012A0006795BA95C9F700976105710508959B0187
:1012B000AC010A2E06945795479537952795BA9510
:1012C000C9F7620F731F841F951FA01D089586C75D
:0412D000F894FFCFC0
:1012D400FFFF5A754953502D666C61736870726FC5
:1012E400670000050001007017E02E01007F003D3B
:1012F400041B0403040D04701770170100B80B00DD
:1013040000DC050101EE02000177010102BB0000CF
:06131400035D0000030070
:00000001FF
