:10000000D9C013C1F8C0F7C0F6C0F5C0F4C0F3C042
:10001000F2C0F1C0F0C0EFC0EEC0EDC0ECC0EBC06C
:10002000EAC0E9C0E8C06E616E00696E6600090250
:1000300019000101008032090400000103000000E2
:100040000705810308003212011001FF000008506B
:100050001D32600300010203011A03630072006194
:100060000070002D006F002D006D006100740069AC
:10007000006300240353005000490020004C006F2F
:10008000006F0070006200610063006B002000548C
:10009000006500730074001E037700770077002E60
:1000A000006E00630072006D006E0074002E006F21
:1000B00000720067000403090400407A10F35A003C
:1000C000A0724E18090010A5D4E80000E876481781
:1000D0000000E40B54020000CA9A3B000000E1F566
:1000E00005000080969800000040420F000000A02C
:1000F0008601000000102700000000E80300000057
:10010000006400000000000A000000000001000080
:100110000000002C76D888DC674F0823DFC1DFAEF3
:1001200059E1B1B796E5E3E453C63AE651997696BC
:10013000E8E6C28426EB898C9B62ED407C6FFCEF85
:10014000BC9C9F40F2BAA56FA5F490055A2AF75CB3
:10015000936B6CF9676DC11BFCE0E40D47FEF52065
:10016000E6B500D0ED902E0300943577050080842D
:100170001E080000204E0A000000C80C3333333341
:100180000F986E12831141EF8D2114893BE65516AD
:10019000CFFEE6DB18D1844B381BF77C1D901DA4E5
:1001A000BBE424203284725E228100C9F124ECA1D8
:1001B000E53D270011241FBECFE5D4E0DEBFCDBF53
:1001C00010E0A0E6B0E0E0EBF1E102C005900D9296
:1001D000AE38B107D9F710E0AEE8B0E001C01D922B
:1001E000A93DB107E1F7F894B5D50AD67894ABD517
:1001F000B5D4B1D4DAC704CFA82FB92F80E090E0EE
:1002000041E050EA609530E009C02D918227979532
:10021000879510F084279527305EC8F36F5FA8F3A9
:100220000895EADF8D939D930895CF93CFB7CF9331
:10023000C395829BE9F7829B09C0829B07C0829B82
:1002400005C0829B03C0829B01C0A3C0DF93C09105
:100250009C00DD27CD55DF4F829B02C0DF91EBCFA5
:100260002F930F931F9300B32FEF02FB20F94F93AF
:100270003F9310B34FEF012702FB21F93BE031C060
:100280004E7F012F10B3216028C0102F4D7F2260B8
:10029000000000B329C04B7F2460012F000010B381
:1002A0002BC010B3477F28602AC04F7E00B3206167
:1002B0002CC04F7D10B320622FC04F7B00B3206451
:1002C00032C0422700B349934FEF0000102712FBC2
:1002D00020F910B31471C9F1297F91F2012702FBB3
:1002E00021F900B3237F89F2315058F1102712FB16
:1002F00022F910B3277E79F2012702FB23F92F7C24
:1003000081F200B3102712FB24F92F7971F200C09B
:1003100010B3012702FB25F92F7359F200C000B377
:10032000102712FB26F9223040F200C010B301273B
:1003300002FB27F9243028F64F77206810B300001D
:10034000F9CF10E41ABF002719C03B503195C31BE9
:10035000D04010E41ABF0881033CF9F00B34E9F0F7
:1003600020919A001981110F1213EDCF4A81441F79
:10037000093641F10D3211F0013E29F70093A10039
:100380003F914F911F910F912F91DF91CAB7C6FDF9
:100390004FCFCF91CFBFCF9118952091A1002223AD
:1003A00079F310919F00112321F5343022F130931D
:1003B0009F0020939B0010919C003BE0311B3093E9
:1003C0009C0019C000919F0001309CF40AE54F7019
:1003D00081F43091600034FD10C000936000CFE8DC
:1003E000D0E00FC02795A8F45150A9F4220F0000C7
:1003F000F9CF4AE503C042ED01C0432FC4E1D0E08C
:1004000032E011B31461929A11BB02B320E414E1FB
:100410005F93012756E002BB279520F4515021F449
:10042000220FF9CF012756E000003B5A02BBD0F261
:10043000279528F4515029F4220F0000F9CF012705
:1004400056E0279502BB20F4515021F4220FF9CF3A
:10045000012756E02991332302BB21F60B7E109130
:10046000A000110FC651D04002BB11F010939A00AA
:1004700010E41ABF046011B31B7E402F4B7E5F91C6
:1004800000C000C002BB11BB42BB7ACFA3E1B0E009
:10049000EBE4F2E0BAC47C015B018A01FC01178243
:1004A0001682838181FD03C050C3860105C0882464
:1004B0008394912C8C0E9D1EF7019381F50193FD81
:1004C000859193FF81915F01882309F43AC38532B6
:1004D00039F493FD859193FF81915F01853229F471
:1004E000B70190E0B7D56801E0CF412C512C20E056
:1004F0002032A8F48B3261F028F4803251F083323C
:1005000071F40BC08D3239F0803349F4216028C07A
:100510002260246025C0286023C0206121C027FDFF
:1005200027C0382F30533A3078F426FF06C0FAE05F
:100530004F9E300D1124432E13C08AE0589E300D7B
:100540001124532E20620CC08E3221F426FDF9C2F4
:10055000206406C08C3611F4206802C0883641F44D
:10056000F50193FD859193FF81915F018111C0CFCA
:10057000982F9554933018F42061805E06C0982F10
:100580009556933008F091C12F7E26FD02C056E0AB
:10059000452E4FE3742E7222853619F4F0E47F2A3B
:1005A00007C0863619F420E8722A02C041104A9426
:1005B00077FE07C03BE3341548F0342C339427E032
:1005C0000DC087E0841530F0242D07C027E03CE300
:1005D000332E04C027E097E0492E312C680194E0C7
:1005E000C90ED11CF8016081718182819381032D34
:1005F000A40142D48C0129812C8720FF02C023FF53
:1006000007C071FC08C072FE09C080E2682E07C0F6
:10061000BDE26B2E04C0ABE26A2E01C0612C8C855A
:100620008C7089F1662011F084E001C083E08515AB
:1006300010F0512C0AC0581A73FC07C0B70180E2B1
:1006400090E008D55A94D1F7F4CF662021F0B70195
:10065000862D90E0FFD43C8533FD03C00AE210E014
:100660000BC006E210E008C071108052B70190E0A4
:10067000F1D40F5F1F4F02C080E17822F80184910E
:100680008111F2CF5BC277FE0EC0300E2C8524FFA5
:1006900004C08A81813309F43A9413144CF538E08C
:1006A000331548F12CC076FC2AC0242D30E02017E9
:1006B000310744F00C3F8FEF180724F090E8792AB7
:1006C00001C04A94442049F0E2E0F0E0EC0FFD1F45
:1006D000E40DF11D80818033A1F377FE10C0342C2E
:1006E0003394242D30E00217130744F4401A07C056
:1006F0003324339404C0F8E03F2E01C0412C77FE30
:1007000007C0101611063CF498012F5F3F4F05C03B
:1007100025E030E002C021E030E0662011F02F5FDC
:100720003F4F442031F0442D50E04F5F5F4F240F86
:10073000351F452D50E02417350714F4521A01C017
:10074000512C872D897041F405C0B70180E290E0FB
:1007500081D45A945110F9CF662021F0B701862D2B
:1007600090E078D473FC08C005C0B70180E390E046
:1007700071D45A945110F9CF77FE51C0380117FF48
:1007800002C0612C712C1E861D8698012319310927
:10079000388B2F87180126183708280C391C642D30
:1007A00070E022273327261B370B3A8B298B3FEF2C
:1007B0006316730621F4B7018EE290E04BD4061560
:1007C00017055CF02F8538892615370534F4ED853B
:1007D000FE85E20DF31D818101C080E331E0631AE3
:1007E00071082D853E852F5F3F4F3E872D872989D4
:1007F0003A896216730624F0B70190E02BD4D7CF64
:100800006016710649F49A81963328F4953321F4E1
:100810003C8534FD01C081E3B70190E044C08A818A
:10082000813319F02C852F7E2C87B70190E012D4EC
:10083000411005C074FE14C085E490E013C0B701F8
:100840008EE290E007D4E2E06E2EF401E60DF11D99
:100850006394B701808190E0FDD34A94B1F7EACF69
:1008600085E690E0B701F6D317FD06C00115110526
:1008700041F43C8534FF05C01195019511098DE2C5
:1008800001C08BE2B70190E0E5D380E303C08F5F46
:100890000A5011090A301105D4F7B70190E0DAD3F4
:1008A000B701C801C096D6D349C1833631F083372A
:1008B00081F0833509F05AC023C0680182E0C80E78
:1008C000D11CF8018081898366246394712C840192
:1008D00013C06801F2E0CF0ED11CF8010081118134
:1008E00026FF03C0642D70E002C06FEF7FEFC801E8
:1008F0002B8BA5D33C012B896FE7462E422216C0D5
:100900006801F2E0CF0ED11CF8010081118126FFB1
:1009100003C0642D70E002C06FEF7FEFC8012B8B26
:1009200083D33C012B8950E8452E422A43FC1AC050
:1009300005C0B70180E290E08DD35A94852D90E0F8
:1009400068167906B0F30EC0F80147FC859147FEA2
:1009500081918F01B70190E07DD351105A94F1E05D
:100960006F1A71086114710479F7E8C0843611F0C8
:10097000893659F5680127FF09C034E0C30ED11C40
:10098000F80160817181828193810AC0F2E0CF0E0B
:10099000D11CF80160817181882777FD8095982F9F
:1009A0004FE6742E722297FF09C09095809570953E
:1009B00061957F4F8F4F9F4FF0E87F2A2AE030E00C
:1009C000A40195D3682E681846C0853731F43FEEF0
:1009D000732E72222AE030E024C099EF792E722221
:1009E0008F36B9F020F4883509F0ABC00DC08037E0
:1009F00021F0883709F0A5C002C020E1722A74FEF8
:100A00000BC034E0732A08C024FF09C086E0782AAE
:100A100006C028E030E005C020E130E002C020E15F
:100A200032E0680177FE09C094E0C90ED11CF801DC
:100A3000608171818281938108C0F2E0CF0ED11C68
:100A4000F8016081718180E090E0A40150D3682EAC
:100A50006818FFE77F2276FE0BC0072D0E7F641417
:100A600050F474FE0AC072FC08C0072D0E7E05C04B
:100A7000162D072D03C0162D01C0142D04FF0CC028
:100A8000FE01E60DF11D8081803311F4097E08C05E
:100A900002FF05C01E5F04C0802F867809F01F5F2B
:100AA00003FD11C000FF0CC0462C151548F4450C81
:100AB000411A152D05C0B70180E290E0CBD21F5F2F
:100AC0001515C8F304C0151510F4511A01C0512CA6
:100AD00004FF0FC0B70180E390E0BCD202FF1CC04E
:100AE00001FF03C088E590E002C088E790E0B7010D
:100AF0000CC0802F867881F001FD02C080E201C029
:100B00008BE207FD8DE2B70190E0A4D205C0B701EA
:100B100080E390E09FD24A946414C8F36A94F4018D
:100B2000E60DF11DB701808190E094D26110F6CFFF
:100B300005C0B70180E290E08DD25A945110F9CFF0
:100B4000B4CCF7012681378102C02FEF3FEFC901F6
:100B50006396E2E176C180E090E00895CF93DF9361
:100B600080919F00835087FD97C090919C002091B9
:100B70009B002D3209F08EC0883009F08BC0CCE08C
:100B8000D0E0C91BD109CD55DF4F83EC80938F0096
:100B90008AE58093600010928E008881807619F03B
:100BA000CE01E4D06EC09A811092980089818111A3
:100BB00006C01092990028E930E082E05EC08530DE
:100BC00019F49093A0004DC0863009F044C08B8189
:100BD000813041F487E490E090939E0080939D00E3
:100BE00082E135C0823041F48EE290E090939E0025
:100BF00080939D0089E12BC0833041F5911108C09D
:100C000085EB90E090939E0080939D0084E01FC050
:100C1000913041F487E990E090939E0080939D008D
:100C20008EE115C0923041F483E790E090939E00EE
:100C300080939D0084E20BC0933041F489E590E0FD
:100C400090939E0080939D008AE101C080E090E433
:100C500090938E0016C0883069F0893029F4909303
:100C6000A20028E930E004C028E930E08A3021F011
:100C700080E003C022EA30E081E030939E002093C0
:100C80009D009F81911104C09E81981708F4892FBF
:100C90008093610010929F008091600084FF46C0A5
:100CA000809161008F3F09F441C0C82F893008F05E
:100CB000C8E08C1B8093610080918F0098E88927A1
:100CC00080938F00CC2331F120919D0030919E00C4
:100CD00080918E0086FF0BC0F901A0E9B0E08C2F57
:100CE0008A0F94919D9331968A13FBCF09C0D90145
:100CF000E0E9F0E08C2F8E0F9D9191938E13FCCF45
:100D00008C2F815090E00196820F931F90939E004C
:100D100080939D006C2F80E990E083DACC5FCC302B
:100D200019F08FEF80936100C093600084E190B36D
:100D3000947131F48150D9F71092A00010929A006A
:100D4000DF91CF91089585B7826085BF8BB78064AE
:100D50008BBF0895BC9887B38C6287BB88B38C63C4
:100D600088BB80E58DB981E08EB90895CF93DF937C
:100D7000FC018181811133C082818FB9779BFECFC5
:100D80003FB12281321303C082E690E002C087E6C1
:100D900090E09F938F931F923F931F922F9381E731
:100DA00090E09F938F93C9EBD0E0DF93CF937ED1F8
:100DB000D0939E00C0939D00FE0101900020E9F7B2
:100DC0003197EC1BFD0B8E2F8F5F2DB73EB7265F43
:100DD0003F4F0FB6F8943EBF0FBE2DBF01C080E05D
:100DE000DF91CF9108958FEF81BB2FEB87E299E0E0
:100DF000215080409040E1F700C0000011BA0895F2
:100E000084E084BB8FEF85BBEECF2F923F924F9251
:100E10005F926F927F928F929F92AF92BF92CF928A
:100E2000DF92EF92FF920F931F93CF93DF93CDB793
:100E3000DEB7CA1BDB0B0FB6F894DEBF0FBECDBF0B
:100E400009942A88398848885F846E847D848C84DC
:100E50009B84AA84B984C884DF80EE80FD800C81E5
:100E60001B81AA81B981CE0FD11D0FB6F894DEBFC8
:100E70000FBECDBFED010895283008F027E03327DD
:100E8000DA01990F311D87FD9160009661057105AA
:100E900039F432602E5F3D9330E32A95E1F70895EF
:100EA0009F3F30F080387105610509F03C5F3C5F81
:100EB0003D93913008F08068911DDF93CF931F938D
:100EC0000F93FF92EF92192F987F9695E92F9695A1
:100ED0009695E90FFF27ED5EFE4F99273327EE2405
:100EE000FF24A701E70105900894079428F4360F22
:100EF000E71EF81E491F511D660F771F881F991F97
:100F00000694A1F70590079428F4E70EF81E491FF0
:100F1000561FC11D770F881F991F661F0694A1F7E2
:100F20000590079428F4F80E491F561FC71FD11DBE
:100F3000880F991F661F771F0694A1F705900794E5
:100F400020F4490F561FC71FD81F990F661F771F20
:100F5000881F0694A9F784911095177041F0D695D3
:100F6000C79557954795F794E7941A95C1F7E9EB1C
:100F7000F0E06894159015913591659195910590E3
:100F80007FE27395E118F10A430B560BC90BD009A8
:100F9000C0F7E10CF11E431F561FC91FD01D7EF480
:100FA000703311F48A95E6CFE894015030F0080FC1
:100FB0000AF40027021708F4202F2395022F7A3312
:100FC00028F079E37D932A95E9F710C07D932A955F
:100FD00089F6069497956795379517951794E118B4
:100FE000F10A430B560BC90BD00998F023957E915B
:100FF00073957A3308F070E37C932013B8F77E91F1
:1010000070617D9330F0839571E37D9370E32A9551
:10101000E1F71124EF90FF900F911F91CF91DF9195
:10102000992787FD90950895FC01059061507040C7
:101030000110D8F7809590958E0F9F1F0895FC01A1
:101040006150704001900110D8F7809590958E0FF7
:101050009F1F08950F931F93CF93DF938C01EB0194
:101060008B8181FD03C00FEF1FEF1AC082FF0DC0FF
:101070002E813F818C819D812817390764F4E88196
:10108000F9810193F983E88306C0E885F985802F0B
:101090000995892B41F78E819F8101969F838E83CD
:1010A000C801DF91CF911F910F910895A0E1B0E0A9
:1010B000EBE5F8E0B8CE0F89188D86E08C831A83B3
:1010C00009838FEF9FE79E838D83AE01455E5F4F5F
:1010D000588B4F87698D7A8DCE010196D7D9EF81D4
:1010E000F885E00FF11F10826096E4E0B8CEFA01B7
:1010F000AA27283051F1203181F1E8946F936E7F57
:101100006E5F7F4F8F4F9F4FAF4FB1E03ED0B4E047
:101110003CD0670F781F891F9A1FA11D680F791F88
:101120008A1F911DA11D6A0F711D811D911DA11D99
:1011300020D009F468943F912AE0269F11243019A9
:10114000305D3193DEF6CF010895462F4770405D44
:101150004193B3E00FD0C9F7F6CF462F4F70405DF3
:101160004A3318F0495D31FD4052419302D0A9F74E
:10117000EACFB4E0A6959795879577956795BA9548
:10118000C9F700976105710508959B01AC010A2E0E
:1011900006945795479537952795BA95C9F7620FE5
:1011A000731F841F951FA01D089522C8F894FFCFB8
:1011B0005AFF504153530045504943204641494C42
:1011C000007478203078257820727820307825785F
:0E11D00020726573756C743A2025730A000056
:00000001FF
