:10000000C8C001C1E6C0E5C0E4C0E3C0E2C0E1C0D1
:10001000E0C0DFC0DEC0DDC0DCC0DBC0DAC0D9C0FC
:10002000D8C0D7C0D6C06E616E00696E6600090286
:1000300019000101008032090400000103000000E2
:100040000705810308003212011001FF000008506B
:100050001D32600300010203010A0330003000304A
:100060000031001203500057004D00200054006F73
:10007000006F006C001E037700770077002E006E83
:1000800000630072006D006E0074002E006F00723D
:100090000067000403090400407A10F35A00A072BC
:1000A0004E18090010A5D4E80000E87648170000B3
:1000B000E40B54020000CA9A3B000000E1F5050081
:1000C0000080969800000040420F000000A08601CA
:1000D000000000102700000000E80300000000649A
:1000E00000000000000A0000000000010000000005
:1000F000002C76D888DC674F0823DFC1DFAE59E1DA
:10010000B1B796E5E3E453C63AE651997696E8E648
:10011000C28426EB898C9B62ED407C6FFCEFBC9C1B
:100120009F40F2BAA56FA5F490055A2AF75C936B2D
:100130006CF9676DC11BFCE0E40D47FEF520E6B5E8
:1001400000D0ED902E0300943577050080841E08C2
:100150000000204E0A000000C80C333333330F98E0
:100160006E12831141EF8D2114893BE65516CFFEA7
:10017000E6DB18D1844B381BF77C1D901DA4BBE433
:1001800024203284725E228100C9F124ECA1E53D75
:10019000270011241FBECFE5D4E0DEBFCDBF10E0A5
:1001A000A0E6B0E0EEEAF5E102C005900D92AE39AE
:1001B000B107D9F711E0AEE9B0E001C01D92AC344F
:1001C000B107E1F7F89435D77894BFD5B5D4B1D459
:1001D000EBC916CFA82FB92F80E090E041E050EA9C
:1001E000609530E009C02D9182279795879510F092
:1001F00084279527305EC8F36F5FA8F30895EADF80
:100200008D939D930895CF93CFB7CF93C395829B42
:10021000E9F7829B09C0829B07C0829B05C0829B35
:1002200003C0829B01C0A3C0DF93C091AC00DD2757
:10023000CD54DF4F829B02C0DF91EBCF2F930F9302
:100240001F9300B32FEF02FB20F94F933F9310B39E
:100250004FEF012702FB21F93BE031C04E7F012F18
:1002600010B3216028C0102F4D7F2260000000B322
:1002700029C04B7F2460012F000010B32BC010B3A6
:10028000477F28602AC04F7E00B320612CC04F7D7D
:1002900010B320622FC04F7B00B3206432C04227CE
:1002A00000B349934FEF0000102712FB20F910B361
:1002B0001471C9F1297F91F2012702FB21F900B3E2
:1002C000237F89F2315058F1102712FB22F910B325
:1002D000277E79F2012702FB23F92F7C81F200B3FC
:1002E000102712FB24F92F7971F200C010B30127F7
:1002F00002FB25F92F7359F200C000B3102712FB3F
:1003000026F9223040F200C010B3012702FB27F982
:10031000243028F64F77206810B30000F9CF10E49E
:100320001ABF002719C03B503195C31BD04010E4C1
:100330001ABF0881033CF9F00B34E9F02091AA00C0
:100340001981110F1213EDCF4A81441F093641F173
:100350000D3211F0013E29F70093B1003F914F910A
:100360001F910F912F91DF91CAB7C6FD4FCFCF914B
:10037000CFBFCF9118952091B100222379F310912E
:10038000AF00112321F5343022F13093AF002093D8
:10039000AB001091AC003BE0311B3093AC0019C0B6
:1003A0000091AF0001309CF40AE54F7081F4309168
:1003B000600034FD10C000936000CFE9D0E00FC0B2
:1003C0002795A8F45150A9F4220F0000F9CF4AE56F
:1003D00003C042ED01C0432FC4E1D0E032E011B3CD
:1003E0001461929A11BB02B320E414E15F930127D8
:1003F00056E002BB279520F4515021F4220FF9CF8B
:10040000012756E000003B5A02BBD0F2279528F4A2
:10041000515029F4220F0000F9CF012756E027950B
:1004200002BB20F4515021F4220FF9CF012756E0EE
:100430002991332302BB21F60B7E1091B000110FDE
:10044000C651D04002BB11F01093AA0010E41ABFAD
:10045000046011B31B7E402F4B7E5F9100C000C033
:1004600002BB11BB42BB7ACFA3E1B0E0E9E3F2E00B
:100470009DC67C015B018A01FC0117821682838183
:1004800081FD03C050C3860105C088248394912C4C
:100490008C0E9D1EF7019381F50193FD859193FFCD
:1004A00081915F01882309F43AC3853239F493FDC1
:1004B000859193FF81915F01853229F4B70190E026
:1004C000C8D76801E0CF412C512C20E02032A8F49D
:1004D0008B3261F028F4803251F0833271F40BC01A
:1004E0008D3239F0803349F4216028C022602460C5
:1004F00025C0286023C0206121C027FD27C0382FD8
:1005000030533A3078F426FF06C0FAE04F9E300DA3
:100510001124432E13C08AE0589E300D1124532E0F
:1005200020620CC08E3221F426FDF9C2206406C080
:100530008C3611F4206802C0883641F4F50193FD31
:10054000859193FF81915F018111C0CF982F9554C0
:10055000933018F42061805E06C0982F9556933032
:1005600008F091C12F7E26FD02C056E0452E4FE3D4
:10057000742E7222853619F4F0E47F2A07C086367D
:1005800019F420E8722A02C041104A9477FE07C08D
:100590003BE3341548F0342C339427E00DC087E05A
:1005A000841530F0242D07C027E03CE3332E04C02F
:1005B00027E097E0492E312C680194E0C90ED11C48
:1005C000F8016081718182819381032DA40153D64A
:1005D0008C0129812C8720FF02C023FF07C071FCFA
:1005E00008C072FE09C080E2682E07C0BDE26B2E13
:1005F00004C0ABE26A2E01C0612C8C858C7089F13D
:10060000662011F084E001C083E0851510F0512CC4
:100610000AC0581A73FC07C0B70180E290E019D7EE
:100620005A94D1F7F4CF662021F0B701862D90E0DF
:1006300010D73C8533FD03C00AE210E00BC006E290
:1006400010E008C071108052B70190E002D70F5F30
:100650001F4F02C080E17822F80184918111F2CF0E
:100660005BC277FE0EC0300E2C8524FF04C08A8149
:10067000813309F43A9413144CF538E0331548F1FA
:100680002CC076FC2AC0242D30E02017310744F01E
:100690000C3F8FEF180724F090E8792A01C04A94A4
:1006A000442049F0E2E0F0E0EC0FFD1FE40DF11D05
:1006B00080818033A1F377FE10C0342C3394242D35
:1006C00030E00217130744F4401A07C03324339470
:1006D00004C0F8E03F2E01C0412C77FE07C0101681
:1006E00011063CF498012F5F3F4F05C025E030E034
:1006F00002C021E030E0662011F02F5F3F4F442020
:1007000031F0442D50E04F5F5F4F240F351F452DD2
:1007100050E02417350714F4521A01C0512C872DCC
:10072000897041F405C0B70180E290E092D65A94F6
:100730005110F9CF662021F0B701862D90E089D6BF
:1007400073FC08C005C0B70180E390E082D65A94DC
:100750005110F9CF77FE51C0380117FF02C0612C4C
:10076000712C1E861D86980123193109388B2F871D
:10077000180126183708280C391C642D70E0222730
:100780003327261B370B3A8B298B3FEF63167306F3
:1007900021F4B7018EE290E05CD6061517055CF0F7
:1007A0002F8538892615370534F4ED85FE85E20D51
:1007B000F31D818101C080E331E0631A71082D854A
:1007C0003E852F5F3F4F3E872D8729893A896216E4
:1007D000730624F0B70190E03CD6D7CF60167106BF
:1007E00049F49A81963328F4953321F43C8534FDFD
:1007F00001C081E3B70190E044C08A81813319F0E0
:100800002C852F7E2C87B70190E023D6411005C0A0
:1008100074FE14C085E490E013C0B7018EE290E04E
:1008200018D6E2E06E2EF401E60DF11D6394B701D7
:10083000808190E00ED64A94B1F7EACF85E690E049
:10084000B70107D617FD06C00115110541F43C8517
:1008500034FF05C01195019511098DE201C08BE2AD
:10086000B70190E0F6D580E303C08F5F0A5011090D
:100870000A301105D4F7B70190E0EBD5B701C801F4
:10088000C096E7D549C1833631F0833781F083358F
:1008900009F05AC023C0680182E0C80ED11CF801DB
:1008A0008081898366246394712C840113C068015C
:1008B000F2E0CF0ED11CF8010081118126FF03C0A8
:1008C000642D70E002C06FEF7FEFC8012B8BB6D5AF
:1008D0003C012B896FE7462E422216C06801F2E0E8
:1008E000CF0ED11CF8010081118126FF03C0642DB9
:1008F00070E002C06FEF7FEFC8012B8B94D53C01F5
:100900002B8950E8452E422A43FC1AC005C0B70186
:1009100080E290E09ED55A94852D90E06816790685
:10092000B0F30EC0F80147FC859147FE81918F011D
:10093000B70190E08ED551105A94F1E06F1A71080A
:100940006114710479F7E8C0843611F0893659F5DD
:10095000680127FF09C034E0C30ED11CF801608193
:100960007181828193810AC0F2E0CF0ED11CF8011F
:1009700060817181882777FD8095982F4FE6742ECE
:10098000722297FF09C090958095709561957F4F71
:100990008F4F9F4FF0E87F2A2AE030E0A401A6D5D0
:1009A000682E681846C0853731F43FEE732E7222E8
:1009B0002AE030E024C099EF792E72228F36B9F008
:1009C00020F4883509F0ABC00DC0803721F088379E
:1009D00009F0A5C002C020E1722A74FE0BC034E009
:1009E000732A08C024FF09C086E0782A06C028E0E0
:1009F00030E005C020E130E002C020E132E06801D3
:100A000077FE09C094E0C90ED11CF80160817181A4
:100A10008281938108C0F2E0CF0ED11CF801608181
:100A2000718180E090E0A40161D5682E6818FFE72D
:100A30007F2276FE0BC0072D0E7F641450F474FEE7
:100A40000AC072FC08C0072D0E7E05C0162D072DAA
:100A500003C0162D01C0142D04FF0CC0FE01E60DCD
:100A6000F11D8081803311F4097E08C002FF05C0AA
:100A70001E5F04C0802F867809F01F5F03FD11C040
:100A800000FF0CC0462C151548F4450C411A152DD5
:100A900005C0B70180E290E0DCD41F5F1515C8F3F4
:100AA00004C0151510F4511A01C0512C04FF0FC0D9
:100AB000B70180E390E0CDD402FF1CC001FF03C06A
:100AC00088E590E002C088E790E0B7010CC0802F75
:100AD000867881F001FD02C080E201C08BE207FD53
:100AE0008DE2B70190E0B5D405C0B70180E390E096
:100AF000B0D44A946414C8F36A94F401E60DF11D6D
:100B0000B701808190E0A5D46110F6CF05C0B70190
:100B100080E290E09ED45A945110F9CFB4CCF70102
:100B20002681378102C02FEF3FEFC9016396E2E1D2
:100B300059C380E090E00895CF93DF936091AF00B8
:100B4000635067FDABC08091AC00CCE0D0E0C81B27
:100B5000D109CD54DF4F8091AB008D3209F08DC0AB
:100B6000683009F099C083EC80939F008AE58093F8
:100B7000600010929E008881807619F0CE018ED19F
:100B800069C09A811092A8008981811106C01092D3
:100B9000A90028EA30E082E059C0853019F490932A
:100BA000B00048C0863009F03FC08B81813019F415
:100BB00087E490E024C0823041F48EE290E090938C
:100BC000AE008093AD0089E12BC0833041F59111D7
:100BD00008C083E990E09093AE008093AD0084E07C
:100BE0001FC0913041F485E790E09093AE00809370
:100BF000AD008EE115C0923041F483E690E0909311
:100C0000AE008093AD0082E10BC0933041F489E5E2
:100C100090E09093AE008093AD008AE001C080E048
:100C200090E490939E0016C0883069F0893029F4D2
:100C30009093B20028EA30E004C028EA30E08A301D
:100C400021F080E003C022EB30E081E03093AE0081
:100C50002093AD008F3F39F4988197FD8E8190E805
:100C600090939E0007C09F81911104C09E819817A8
:100C700008F4892F809361000FC080919E0087FF48
:100C80000BC0CE01C8D18F3F21F48EE1809360006C
:100C900003C08111109261001092AF00809160003A
:100CA00084FF46C0809161008F3F09F441C0C82F86
:100CB000893008F0C8E08C1B8093610080919F0010
:100CC00098E8892780939F00CC2331F12091AD00D3
:100CD0003091AE0080919E0086FF0BC0F901A0EA22
:100CE000B0E08C2F8A0F94919D9331968A13FBCF9D
:100CF00009C0D901E0EAF0E08C2F8E0F9D9191930D
:100D00008E13FCCF8C2F815090E00196820F931FA1
:100D10009093AE008093AD006C2F80EA90E06FDA84
:100D2000CC5FCC3019F08FEF80936100C0936000EE
:100D300084E190B3947131F48150D9F71092B000EE
:100D40001092AA00DF91CF91089585B7826085BF88
:100D50008BB780648BBF08952F923F924F925F9222
:100D60006F927F928F929F92AF92BF92CF92DF92BB
:100D7000EF92FF920F931F93CF93DF93CDB7DEB720
:100D80002C970FB6F894DEBF0FBECDBF2D833E83E8
:100D90004F83952E862E788789879A8783E990E0FE
:100DA0009C878B8722242394312CAB85BC852D9185
:100DB0003D91BC87AB87442737FD4095542F60E0B9
:100DC0007BE187EB90E03AD129013A01DA01C901D0
:100DD000BB0F880B982FDC0189839A83AB83BC837C
:100DE000AD80BE80CF80D92CE82CF88409851A8587
:100DF0009201A3016981762F862F962F47D1E0E4D7
:100E0000AE2EF2E4BF2EAFE0CA2ED12CE12CF12C95
:100E100000E010E030D1F22FE32F2F3F3F4F41058C
:100E20005105610571058105910549F040F0BFEF5D
:100E30002B1A3B0A86E02816310409F0B6CF6F2F33
:100E40007E2F822D2C960FB6F894DEBF0FBECDBF3D
:100E5000DF91CF911F910F91FF90EF90DF90CF9096
:100E6000BF90AF909F908F907F906F905F904F90CA
:100E70003F902F9008951FBC1EBCFC012081318142
:100E800037BD26BD22EA2FBD828188618EBD8FB518
:100E900080688FBD87B3866087BB08954F925F924D
:100EA0006F927F928F929F92AF92BF92CF92DF927A
:100EB000EF92FF920F931F93CF93DF9300D000D058
:100EC000CDB7DEB74C01DC0111968C9111978111E1
:100ED00022C012968D919C9113979C0140E050E0A6
:100EE00060E070E080E090E037DF6093C9007093CD
:100EF000CA008093CB0089EC90E0BDDF8091CB00ED
:100F00001F928F938091CA008F938091C9008F9315
:100F100082E690E050C0813009F059C0E091CB00EA
:100F2000F0E0EE0FFF1FEF56FF4F20813181442785
:100F300037FD4095542F60E07BE187EB90E07ED059
:100F400029013A01DA01C901BB0F880B982FDC0196
:100F500089839A83AB83BC83D40112960D911C9133
:100F600013975801C12CD12CE12CF12C00E010E09A
:100F7000A3016981762F862F962F88D0E0E4AE2ECC
:100F8000F2E4BF2EAFE0CA2E76D0F40184819581C1
:100F9000892B19F43BBD2ABD02C039BD28BD3F9342
:100FA0002F93D40115968C9115978F9314968C914D
:100FB0008F938CE790E09F938F938CEC90E09F93BE
:100FC0008F9373D20FB6F894DEBF0FBECDBFECEC9B
:100FD000F0E0F093AE00E093AD00DF010D90002053
:100FE000E9F7CD0101978E1B9F0B8F5F0F900F903C
:100FF0000F900F90DF91CF911F910F91FF90EF9085
:10100000DF90CF90BF90AF909F908F907F906F9028
:101010005F904F90089508958FEF81BB2FEB87E28B
:1010200099E0215080409040E1F700C0000011BAE3
:10103000089584E084BB8FEF85BBEECF052E97FB30
:1010400016F4009406D057FD0CD0F3D007FC09D05D
:101050007EF490958095709561957F4F8F4F9F4F4F
:10106000089550954095309521953F4F4F4F5F4FD4
:101070000895689401C0E8948F929F92CF93DF9374
:1010800056D0DF91CF919F908F900895DF93CF93AB
:101090001F930F939A9DF02D219FF00D8B9DF00DC6
:1010A0008A9DE02DF10D039FF00D029FE00DF11DD3
:1010B0004E9DE00DF11D5E9DF00D4F9DF00D7F9357
:1010C0006F93BF92AF925F934F93D501A6D08B01E0
:1010D000AC01D701A2D0EB01E80FF91FD6011FD058
:1010E0002F913F91D60199D0C60FD71FE81FF91F46
:1010F000AF91BF9114D02F913F918FD0C60FD71FC2
:10110000E81FF91FD60189D0E60FF71F9801BE012D
:10111000CF0111240F911F91CF91DF9108957DD0C0
:10112000460F571FC81FD91F08F431960895882409
:101130009924F401E401B0E41B2ED4019D158E0422
:101140009F04E007F10738F4FC014B01CA01B90123
:10115000AD019E011694220F331F441F551F661FB9
:10116000771F881F991F881C991CEE1FFF1FCC1F1B
:10117000DD1FAA1FBB1F8A149B04EC05FD05CE05CD
:10118000DF05A007B10748F08A189B08EC09FD09A4
:10119000CE09DF09A00BB10B21601A94E1F62EF401
:1011A0009401AF01BE01CD01000C08952F923F9232
:1011B0004F925F926F927F928F929F92AF92BF9267
:1011C000CF92DF92EF92FF920F931F93CF93DF9313
:1011D000CDB7DEB7CA1BDB0B0FB6F894DEBF0FBE70
:1011E000CDBF09942A88398848885F846E847D84BD
:1011F0008C849B84AA84B984C884DF80EE80FD80BF
:101200000C811B81AA81B981CE0FD11D0FB6F89434
:10121000DEBF0FBECDBFED010895A29FB001B39F09
:10122000C001A39F01D0B29F700D811D1124911D9B
:101230000895A1E21A2EAA1BBB1BFD010DC0AA1F17
:10124000BB1FEE1FFF1FA217B307E407F50720F02F
:10125000A21BB30BE40BF50B661F771F881F991FAA
:101260001A9469F760957095809590959B01AC01F3
:10127000BD01CF010895283008F027E03327DA01B7
:10128000990F311D87FD916000966105710539F454
:1012900032602E5F3D9330E32A95E1F708959F3F3A
:1012A00030F080387105610509F03C5F3C5F3D938B
:1012B000913008F08068911DDF93CF931F930F93B7
:1012C000FF92EF92192F987F9695E92F9695969514
:1012D000E90FFF27EF50FF4F99273327EE24FF2414
:1012E000A701E70105900894079428F4360FE71E3C
:1012F000F81E491F511D660F771F881F991F0694FE
:10130000A1F70590079428F4E70EF81E491F561F11
:10131000C11D770F881F991F661F0694A1F70590BE
:10132000079428F4F80E491F561FC71FD11D880FB8
:10133000991F661F771F0694A1F70590079420F464
:10134000490F561FC71FD81F990F661F771F881F89
:101350000694A9F784911095177041F0D695C7951A
:1013600057954795F794E7941A95C1F7E7E9F0E0A8
:1013700068941590159135916591959105907FE24E
:101380007395E118F10A430B560BC90BD009C0F74E
:10139000E10CF11E431F561FC91FD01D7EF4703390
:1013A00011F48A95E6CFE894015030F0080F0AF462
:1013B0000027021708F4202F2395022F7A3328F0F4
:1013C00079E37D932A95E9F710C07D932A9589F6F4
:1013D000069497956795379517951794E118F10A34
:1013E000430B560BC90BD00998F023957E9173954A
:1013F0007A3308F070E37C932013B8F77E91706124
:101400007D9330F0839571E37D9370E32A95E1F746
:101410001124EF90FF900F911F91CF91DF919927A9
:1014200087FD90950895FC01059061507040011072
:10143000D8F7809590958E0F9F1F0895FC016150FD
:10144000704001900110D8F7809590958E0F9F1FE6
:1014500008950F931F93CF93DF938C01EB018B8142
:1014600081FD03C00FEF1FEF1AC082FF0DC02E8158
:101470003F818C819D812817390764F4E881F981C7
:101480000193F983E88306C0E885F985802F0995E3
:10149000892B41F78E819F8101969F838E83C8019E
:1014A000DF91CF911F910F910895A0E1B0E0EAE59F
:1014B000FAE08ACE0F89188D86E08C831A8309831F
:1014C0008FEF9FE79E838D83AE01455E5F4F588B04
:1014D0004F87698D7A8DCE010196C6D7EF81F88549
:1014E000E00FF11F10826096E4E08ACEFA01AA278D
:1014F000283051F1203181F1E8946F936E7F6E5F57
:101500007F4F8F4F9F4FAF4FB1E03ED0B4E03CD004
:10151000670F781F891F9A1FA11D680F791F8A1FE7
:10152000911DA11D6A0F711D811D911DA11D20D04E
:1015300009F468943F912AE0269F11243019305D08
:101540003193DEF6CF010895462F4770405D4193F9
:10155000B3E00FD0C9F7F6CF462F4F70405D4A3346
:1015600018F0495D31FD4052419302D0A9F7EACF0E
:10157000B4E0A6959795879577956795BA95C9F73D
:1015800000976105710508959B01AC010A2E069430
:101590005795479537952795BA95C9F7620F731FE9
:0E15A000841F951FA01D089511C6F894FFCF5B
:1015AE005AFF4943523A20257520207C20507265FF
:1015BE007363616C65723A2025750A004368616E2B
:1015CE006E656C202564207469636B732025750A23
:0E15DE000000000100080040000001000400B1
:00000001FF
