:100000003BC0A0C154C053C052C051C050C04FC02B
:100010004EC04DC04CC04BC04AC049C048C047C08C
:1000200046C045C044C00902120001010080190900
:10003000040000000000000012011001FF00000891
:10004000C016DC050401010200010E035500530037
:1000500042006100730070001C0377007700770096
:100060002E00660069007300630068006C002E00BB
:10007000640065000403090411241FBECFE5D4E029
:10008000DEBFCDBF10E0A0E6B0E0EAEFF0E102C0D5
:1000900005900D92A236B107D9F710E0A2E6B0E0C4
:1000A00001C01D92AA3AB107E1F717D824C8A8CF1A
:1000B000CF93DF9360918800635067FD13C08091F8
:1000C0008500CCE0D0E0C81BD109C457DF4F809138
:1000D00084008D3209F457C08091620087FD9BC077
:1000E000109288008091600084FF40C060916100A0
:1000F0006F3F09F43BC0693008F46FC068506093EB
:1001000061008091780098E889278093780068E002
:100110008091620087FD1DC040918600509187004C
:1001200086FF70C0FA01862FA9E7B0E094919D93F5
:1001300031968150D9F7262F215030E02F5F3F4F65
:10014000240F351F3093870020938600C62FCC5F85
:100150004FC089E790E08AD6682F893008F4A1C0A3
:100160008FEF80936100CEE1C093600094E180B393
:10017000847131F49150D9F7109289001092830064
:10018000DF91CF910895683009F0AACF83EC809376
:1001900078008AE580936000109262008881807602
:1001A00009F043C09A81109281008981811147C072
:1001B0001092820021E830E082E0309387002093A3
:1001C00086008F3FA9F19F81911104C09E819817ED
:1001D00008F4892F8093610083CF10926100809191
:1001E000780098E8892780937800611191CFC4E066
:1001F00089E790E0A3D0CC3009F4B6CF8FEF80939D
:100200006100B2CFDA01862FE9E7F0E09D9191938A
:100210008150E1F790CFCE0196D68F3FF1F0882341
:1002200009F45ECF109261005BCFCE017AD4C9CFC2
:10023000988197FD16C090E890936200CBCF8530EF
:1002400091F0863001F18830D1F0893091F021E8C9
:1002500030E08A3021F180E0B0CF8EE18093600001
:100260003FCF8E81E8CF9093890021E830E080E095
:10027000A4CF90938B0021E830E080E09ECF2BE864
:1002800030E081E09ACF8B81813001F18230B1F092
:10029000833051F080E090E49093620092CF81E04F
:1002A0008CCFC82FCC5FA4CF911118C084E790E009
:1002B000909387008093860084E0EDCF86E290E003
:1002C000909387008093860082E1E5CF88E390E0F9
:1002D000909387008093860082E1DDCF913051F0CA
:1002E0009230C1F68AE490E0909387008093860074
:1002F0008EE0D1CF88E590E09093870080938600D0
:100300008CE1C9CF85B7836085BF8BB780648BBF15
:100310000895A82FB92F80E090E041E050EA609561
:1003200030E009C02D9182279795879510F084279A
:100330009527305EC8F36F5FA8F30895EADF8D93C9
:100340009D930895CF93CFB7CF93DF93C395829BAF
:10035000E9F7829B11C0829B0FC0829B0DC0829BDC
:100360000BC0829B09C0829B07C0829B05C0829BF9
:1003700003C0829B01C081C06F93C0918500DD27BF
:10038000C457DF4F2F9320E400C065E0829B03C079
:100390002F916F91DECF0F931F934F9345E55F939E
:1003A00055E53F933BE010E100B304712EC06A9520
:1003B000C9F03150D8F100B3047101130BC0089497
:1003C0002795299320E4555500F46A9569F701E0D3
:1003D00060B30BC0102F66E02695299320E4555595
:1003E00018F3E2CF0FEF60B30000162F455500F071
:1003F000404066E014710030E2F221F0000000B3EA
:10040000047103C000B30471A9F0011309C008947A
:10041000279568F200C06A95A9F700E060B3E5CFC0
:10042000102F66E0269528F20000ECCF10E41ABFEA
:10043000002717C03B503195C31BD04010E41ABFB2
:100440000881033CF9F00B34E9F020918300198115
:10045000110F1213EDCF093651F10D3211F0013E9B
:1004600039F700938A003F915F914F911F910F914F
:100470002F916F91CAB7C6FD69CFDF91CF91CFBFE2
:10048000CF91189520918A00222369F3109188005A
:10049000112329F534302AF1309388002093840009
:1004A000109185003BE0311B309385001AC000910C
:1004B00088000130A4F40AE53091600034FD12C0D8
:1004C00000936000C8E7D0E011C0052710E000C02D
:1004D00002BB19C0052710E0221F00C01DC04AE55D
:1004E00002C032ED432FC4E1D0E032E011B3146119
:1004F000929A02B311BB54E120E869E420FF05277A
:1005000002BB2795179500C000001C3FF0F66695CA
:10051000A8F7A1F720FF052702BB27951795000034
:100520001C3FC0F629913A9541F70B7E1091890046
:10053000110F02BBC651D04011F01093830010E49C
:100540001ABF046011B31B7E402F4B7E55E05A95B5
:10055000F1F702BB11BB42BB86CF582F48E080E0C9
:100560002091A70057FD14C0C398550F880FB49968
:100570008F5FC59A32B792B7931B9217E0F3C59875
:1005800032B792B7931B9217E0F3415059F7089591
:10059000C39AEBCF8FB9779BFECF8FB1089521E13E
:1005A00096958795779567952A95D1F72091A6001E
:1005B0002617D9F06093A600E091A300F091A40063
:1005C0008DE40995E091A300F091A40080E00995E5
:1005D000E091A300F091A4008091A6000995E0911C
:1005E000A300F091A40080E0099408958091A500F3
:1005F0008DB98091A2008EB908958823A1F088302A
:10060000D0F52DEA32E03093A4002093A30084308B
:1006100011F1C8F0863021F030F1873001F180EC23
:100620008093A70008958AEC92E09093A4008093B1
:10063000A30081E08093A70082E58093A50081E07C
:100640008093A2000895823091F0833041F780E3D7
:100650008093A700089588E18093A700089583E020
:100660008093A70008958CE08093A700089580E60A
:100670008093A70008952AEC32E03093A4002093E1
:10068000A3001092A20091E09093A700893039F066
:1006900050F4883089F683E58093A500089582E5BB
:1006A0008093A50008958B3021F08C3029F690932B
:1006B000A20081E58093A500089522B79091A7003C
:1006C00082B7821B8917E0F3089587B38C6287BBDA
:1006D000C298C59822B79091A70082B7821B89174C
:1006E000E0F3C29A22B782B7821B8917E0F3C2985F
:1006F0008091A3009091A4008A5C924019F010921E
:10070000A60008958091A5008DB98091A2008EB9B0
:100710001092A600089587B3837D87BB88B3837D3D
:1007200088BB1DB80895CF93DF93C0E2E091A3008A
:10073000F091A4008CEA0995E091A300F091A40047
:1007400083E50995E091A300F091A40080E009956C
:10075000D82FE091A300F091A40080E00995D33553
:1007600049F11DB822B79091A70082B7821B891763
:10077000E0F3C29A22B782B7821B8917E0F3C298CE
:1007800022B782B7821B8917E0F3E091A300F091B2
:10079000A40082E0EA3CF80731F0C15059F681E04C
:1007A000DF91CF9108958091A5008DB98091A2002D
:1007B0008EB9F3CF80E0DF91CF910895CF92DF9291
:1007C000EF92FF926B017C01EADED701C6018170D6
:1007D0009927AA27BB27880F880F880FE091A300CD
:1007E000F091A40080620995D701C60139E0B69561
:1007F000A795979587953A95D1F7E091A300F09149
:10080000A4000995D701C601B695A7959795879538
:10081000E091A300F091A4000995E091A300F0916C
:10082000A40080E0FF90EF90DF90CF900994CF92EA
:10083000DF92EF92FF920F931F93CF93DF936B01A1
:100840007C01C42FD22FABDE9701860101701127E6
:1008500022273327802F880F880F880FE091A3006D
:10086000F091A40080640995D701C60159E0B695BE
:10087000A795979587955A95D1F7E091A300F091A8
:10088000A4000995D701C601B695A79597958795B8
:10089000E091A300F091A4000995E091A300F091EC
:1008A000A4008C2F0995DD23A9F0CF3789F0D2B7AA
:1008B000CEE1C701B60182DF8F3761F482B78D1BAD
:1008C0008D3310F0D2B7C150C111F3CF81E003C016
:1008D0008FE0B2D080E0DF91CF911F910F91FF9018
:1008E000EF90DF90CF900895CF92DF92EF92FF923A
:1008F0000F931F93CF93DF931F92CDB7DEB76B019A
:100900007C0149834CDEE091A300F091A4008CE4CB
:100910000995D701C60179E0B695A7959795879572
:100920007A95D1F7E091A300F091A4000995D70141
:10093000C601B695A79597958795E091A300F0918C
:10094000A4000995E091A300F091A40080E009952E
:1009500049814F3FE1F002B71EE1C701B6012EDF2A
:100960008F3F99F482B7801B8D3310F002B711507E
:100970001111F3CF81E00F90DF91CF911F910F9173
:10098000FF90EF90DF90CF90089580E0F4CF8FE05C
:1009900053D080E0F0CF1F93CF93DF931F92CDB75A
:1009A000DEB7182FE091A300F091A40080EA9983AC
:1009B0000995E091A300F091A4009981892F0995F0
:1009C000E091A300F091A400812F0995E091A3008C
:1009D000F091A40080E00F90DF91CF911F910994D6
:1009E0001F93CF93DF9300D0CDB7DEB7182FE091E0
:1009F000A300F091A40080EC6A8399830995E091AB
:100A0000A300F091A4009981892F0995E091A3009A
:100A1000F091A400812F0995E091A300F091A4002A
:100A20006A81862F09958EE107D080E00F900F90A4
:100A3000DF91CF911F910895882349F030E022B7CC
:100A400092B7921B9C33E0F33F5F3813F8CF0895C1
:100A5000BD9ABB98C39A50E217D05A95E9F708950A
:100A6000AC0188E605D0842F03D089E601D0852F1C
:100A70000FD028E030E0382780FB869506D02A95F5
:100A8000D1F730FB02D000D06894BB98C39A16F01F
:100A9000C398BB9AE091A800F091A9003197F0F7B4
:100AA000C59AE6B3E3FBE091A800F091A900319765
:100AB000F0F7C598089520ECE7DF46F42A95E1F7B2
:100AC00080E02AE1E5DF2A95E9F7DECF28E030E093
:100AD000DBDF869587F938272A95D1F7D5DF27F907
:100AE000322772F3D1DFD0CFDB01742FB9DF84E27C
:100AF000BFDFE1DF8D937A95D1F70895DB01742F85
:100B0000AFDF83EFB5DF8DE1B3DF84E6B1DF8D9139
:100B1000AFDF82E7ADDFCFDF8078D9F77A9589F74D
:100B20000895CF93DF93EC018981813089F1823080
:100B300009F4A8C0833009F45FC08430A1F1873084
:100B400009F47FC0853009F4FEC0863009F49EC0E8
:100B5000883009F4D1C0893009F4FAC08A3009F428
:100B600025C18B3009F451C18C3009F461C18D303D
:100B700009F473C18E3009F475C18F3009F4F9C0DE
:100B8000803109F41AC18F3709F434C180E02BC0D9
:100B9000989B54C08091630030DD10926400AA9845
:100BA00094DD80E020C080916400811110C05B81E1
:100BB00040E08A81482B662757FD6095762F409349
:100BC0006D0050936E0060936F00709370009F8172
:100BD00080E02E81822B909372008093710082E0DE
:100BE000809373008FEF25E630E0309387002093E9
:100BF0008600DF91CF910895E091A300F091A400C9
:100C00008A81099580936500E091A300F091A4008A
:100C10008B81099580936600E091A300F091A40078
:100C20008C81099580936700E091A300F091A40066
:100C30008D8109958093680084E0D5CF85E0DDDC67
:100C4000ACCF80916400811110C05B8140E08A814B
:100C5000482B662757FD6095762F40936D00509383
:100C60006E0060936F00709370009F8180E02E8112
:100C7000822B909372008093710083E080937300C5
:100C80008FEFB1CF48DDAA9A80E0ADCF80916400AC
:100C9000811110C09B8180E02A81822BAA2797FDB9
:100CA000A095BA2F80936D0090936E00A0936F0073
:100CB000B09370003C812D81822F8F7080937600DD
:100CC000822F807F40E1849FC0011124830F911DFA
:100CD000909375008093740020FD809377009F812E
:100CE00080E02E81822B909372008093710081E0CE
:100CF000809373008FEF77CF80916400811110C0D3
:100D00009B8180E02A81822BAA2797FDA095BA2F8C
:100D100080936D0090936E00A0936F00B09370006D
:100D20001092750010927400109276009F8180E0FE
:100D30002E81822B909372008093710084E08093C7
:100D400073008FEF50CFEFDC8093650081E04BCFD5
:100D500081E0809364008A819B81AC81BD81809316
:100D60006D0090936E00A0936F00B093700080E0D0
:100D70003ACF9B8180E02A81822BAA2797FDA095FC
:100D8000BA2F80936D0090936E00A0936F00B09384
:100D900070009F8180E02E81822B9093720080935F
:100DA000710085E0809373008FEF1DCF8A8180935F
:100DB00063001092650081E016CF9B8180E02A815C
:100DC000822BAA2797FDA095BA2F80936D00909350
:100DD0006E00A0936F00B09370009F8180E02E8121
:100DE000822B909372008093710086E08093730051
:100DF0008FEFF9CE81E0809365001092660010922B
:100E000067001092680084E0EECE9B8180E02A812A
:100E1000822B9093A9008093A800C29ABA9A83E08B
:100E20000BDEC298AA9880E107DE12DE80E0DBCEFE
:100E300080EC1EDE80E01CDE8AE0FEDDC29A85E0EA
:100E4000FBDDC29885E0F8DD87B3837D87BB88B37F
:100E5000837D88BBAA9A80E0C6CE2DDE8093650094
:100E600081E0C1CE8A8104DE80E0BDCE0F931F9366
:100E7000CF93DF93582F792F062F20917300322FB5
:100E80003250323050F0253009F441C00FEF802F3E
:100E9000DF91CF911F910F910895662381F1809189
:100EA0006D0090916E00A0916F00B0917000C52F01
:100EB000D72F10E01BC06FDD888380916D0090916B
:100EC0006E00A0916F00B09170000196A11DB11D40
:100ED00080936D0090936E00A0936F00B0937000AC
:100EE0001F5F2196101749F020917300223019F7E7
:100EF000BC01CD0163DC8883E0CF083040F610925E
:100F00007300802FDF91CF911F910F910895462F8D
:100F1000682F80916D0090916E00E6DD80916D00EC
:100F200090916E00A0916F00B0917000800F911DA4
:100F3000A11DB11D80936D0090936E00A0936F0072
:100F4000B0937000A4CFFF920F931F93CF93DF93C2
:100F5000382F792F162F20917300213071F0243013
:100F600061F0263009F48BC0FF24FA948F2DDF91B5
:100F7000CF911F910F91FF900895112309F4ABC0F9
:100F800080916D0090916E00A0916F00B091700003
:100F9000C32FD72F00E0F12C4EC020917400309168
:100FA0007500232B09F050C021E04881BC01CD0120
:100FB0003EDC209171003091720021503109309354
:100FC000720020937100232BE1F410927300809142
:100FD000760081FF36C02091770030E08091740068
:100FE000909175002817390761F160916D0070913B
:100FF0006E0080916F0090917000488175DCFF2435
:10100000F39480916D0090916E00A0916F00B0916B
:1010100070000196A11DB11D80936D0090936E002C
:10102000A0936F00B09370000F5F2196011709F431
:101030009DCF20917300213009F4AFCF6881D0DCBF
:10104000B8CFFF24F394DDCF20E04881BC01CD016F
:10105000EEDB809177008150809377008111A9CFDA
:1010600060916D0070916E0080916F0090917000A2
:1010700048813ADC80917400809377009ACF462FA4
:10108000682F80916D0090916E0038DD80916D0029
:1010900090916E00A0916F00B0917000810F911D32
:1010A000A11DB11D80936D0090936E00A0936F0001
:1010B000B09370008091710090917200811B910932
:1010C0009093720080937100892B29F41092730021
:1010D000FF24F3944BCFF12C49CF919A8CEF87BB2F
:1010E00084E084BB87E085BB83E083BF0BD9789421
:0A10F000DFD7DED7FDCFF894FFCF65
:0210FA005AFF9B
:00000001FF
