:100000005EC0CEC185C084C083C082C081C080C0B4
:100010007FC07EC07DC07CC07BC07AC079C078C004
:1000200077C076C075C00902220001010080320944
:100030000400000103000000092101010001222148
:10004000000705810308000A12011001FF000008E3
:10005000C016DF05010001020301160342006F0014
:100060006F0074006C006F00610064006500720036
:100070000A0375004900530050001E037700770003
:1000800077002E006E00630072006D006E00740039
:100090002E006F0072006700040309040600FF09C8
:1000A00001A101150026FF007508850195060900CC
:1000B000B20201850295830900B20201C000112439
:1000C0001FBECFE5D4E0DEBFCDBF10E0A0E6B0E0BC
:1000D000EAEAF6E002C005900D92AA36B107D9F718
:1000E00010E0AAE6B0E001C01D92A839B107E1F71F
:1000F000F8947894A29A85B3876085BB81E08BBF22
:1001000082E08BBFC0D22CD104D0FECFC8D2CAC2ED
:1001100077CF1F93CF93DF9360917E00635067FD8D
:10012000D0C020917B008CE090E0821B9109EC0113
:10013000CE57DF4F20917A002D3209F0B0C06830E1
:1001400009F0BDC023EC20936E002AE520936000E7
:1001500010926A002881207631F0CE0152D28F3F72
:1001600009F48CC092C03A81109277002981222331
:1001700031F41092780027E730E082E07AC0253031
:1001800019F430937F006BC0263009F05FC0FC018A
:10019000EC57FF4F20818B579F4FFC0180818130AE
:1001A00041F488E490E090937D0080937C0082E1AC
:1001B00049C0823041F486E290E090937D008093C4
:1001C0007C0082E23FC0833041F5222341F488E97C
:1001D00090E090937D0080937C0084E033C02130D8
:1001E00041F48AE790E090937D0080937C008EE15B
:1001F00029C0223041F480E790E090937D00809305
:100200007C008AE01FC02330E1F48AE590E09093FF
:100210007D0080937C0086E115C0813241F488E343
:1002200090E090937D0080937C0089E00BC0823247
:1002300041F48CE990E090937D0080937C0081E212
:1002400001C080E090E490936A001FC0283059F00C
:10025000293019F43093810002C02A3039F027E7A1
:1002600030E080E006C021E830E002C027E730E05F
:1002700081E030937D0020937C0007C0988197FD3A
:100280008E8190E890936A0007C09F81992321F4A2
:100290009E81981708F4892F8093610010C0809187
:1002A0006A0087FF0CC0CE01C7D18F3F21F48EE1D9
:1002B0008093600004C0882311F0109261001092B6
:1002C0007E008091600084FF3DC0809161008F3F7F
:1002D000C9F1182F893008F018E0811B8093610064
:1002E00080916E0098E8892780936E001123F1F0C9
:1002F000E0917C00F0917D0080916A0086FF09C04A
:10030000812FAFE6B0E094919D9331968150D9F75B
:1003100009C0DF01812FCFE6D0E09D919993FD01C7
:100320008150D9F7F0937D00E0937C008FE690E058
:10033000612F32D01C5F1C3019F08FEF8093610069
:100340001093600084E190B3947131F48150D9F737
:1003500010927F0010927900DF91CF911F91089544
:1003600085B7826085BF8BB780648BBF0895A82F47
:10037000B92F80E090E041E050EA609530E009C09C
:100380002D9182279795879510F084279527305EC9
:10039000C8F36F5FA8F30895EADF8D939D930895E6
:1003A000CF93CFB7CF93C395829BE9F7829B09C0C8
:1003B000829B07C0829B05C0829B03C0829B01C0B9
:1003C000A3C0DF93C0917B00DD27CE57DF4F829B18
:1003D00002C0DF91EBCF2F930F931F9300B32FEF4A
:1003E00002FB20F94F933F9310B34FEF012702FB1D
:1003F00021F93BE031C04E7F012F10B3216028C0AE
:10040000102F4D7F2260000000B329C04B7F246075
:10041000012F000010B32BC010B3477F28602AC003
:100420004F7E00B320612CC04F7D10B320622FC0DF
:100430004F7B00B3206432C0422700B349934FEF93
:100440000000102712FB20F910B31471C9F1297FA5
:1004500091F2012702FB21F900B3237F89F2315089
:1004600058F1102712FB22F910B3277E79F20127E9
:1004700002FB23F92F7C81F200B3102712FB24F931
:100480002F7971F200C010B3012702FB25F92F73F9
:1004900059F200C000B3102712FB26F9223040F2B7
:1004A00000C010B3012702FB27F9243028F64F774C
:1004B000206810B30000F9CF10E41ABF002719C05C
:1004C0003B503195C31BD04010E41ABF0881033C58
:1004D000F9F00B34E9F0209179001981110F121312
:1004E000EDCF4A81441F093641F10D3211F0013E32
:1004F00029F7009380003F914F911F910F912F9109
:10050000DF91CAB7C6FD4FCFCF91CFBFCF9118951E
:1005100020918000222379F310917E00112321F590
:10052000343022F130937E0020937A0010917B00CA
:100530003BE0311B30937B0019C000917E000130FD
:100540009CF40AE54F7081F43091600034FD10C0D6
:1005500000936000CEE6D0E00FC02795A8F451507C
:10056000A9F4220F0000F9CF4AE503C042ED01C013
:10057000432FC4E1D0E032E011B31461929A11BB71
:1005800002B320E414E15F93012756E002BB2795F4
:1005900020F4515021F4220FF9CF012756E000003A
:1005A0003B5A02BBD0F2279528F4515029F4220F70
:1005B0000000F9CF012756E0279502BB20F45150E7
:1005C00021F4220FF9CF012756E02991332302BBF2
:1005D00021F60B7E10917F00110FC651D04002BB57
:1005E00011F01093790010E41ABF046011B31B7E60
:1005F000402F4B7E5F9100C000C002BB11BB42BBCD
:100600007ACFFC018181893059F48281823021F4D2
:1006100010926B008FEF08951092620080E00895B1
:10062000813041F483E690E090937D0080937C00DC
:1006300087E0089580E00895DC01E0916C00F0917E
:100640006D0080916B00882341F41196EC91119715
:100650001296FC91129714966450860F80936B004B
:100660008078F8942D913D9191E009019093570085
:10067000E895112478943296625099F7F0936D00C2
:10068000E0936C0008958FEF81BB84EC99E0ECE27D
:10069000F1E03197F1F70197D1F711BA089580E0B1
:0A06A00090E0089527CDF894FFCFF5
:0A06AA005AFF01014000002000008B
:00000001FF
