:1000000058C002C171C070C06FC06EC06DC06CC0FE
:100010006BC06AC069C068C067C066C065C064C0A4
:1000200063C062C061C0090243000201008032095E
:100030000400000102020100052400100104240252
:1000400006052406000105240103010705830308B2
:1000500000FF09040100020A000000070501020870
:1000600000000705810208000012011001020000D3
:1000700008C016E1050001010200011003550053FC
:100080000042002D00530050004900220377007702
:100090000077002E00720065006300750072007327
:1000A0000069006F006E002E006A007000040309F2
:1000B000040011241FBECFE5D4E0DEBFCDBF10E0A9
:1000C000A0E6B0E0EEE6F8E002C005900D92AC3696
:1000D000B107D9F710E0ACE6B0E001C01D92AA3C30
:1000E000B107E1F735D3C1C38BCFFC0183818130E8
:1000F00049F489E690E09093A3008093A200809158
:100100006900089586E290E09093A3008093A20096
:1001100083E40895FC0180818076803259F58181E5
:10012000982F9052923040F12281823281F488B32C
:100130002170220F220F220F877F282B28BB80914E
:100140006C00882389F482E080936C000DC08332B8
:1001500059F488B330E021703070220F331F220F22
:10016000331F8B7F822B88BB808187FD07C081E096
:1001700080936D0080E008958FEF089580E00895EA
:10018000FC01AEE6B0E087E00D9001928150E1F70E
:1001900087E00895AEE6B0E0FC0187E001900D92A3
:1001A0008150E1F781E00895FC0120917500962FC0
:1001B000822F08C0A82FB0E0AA58BF4F31913C93BE
:1001C0008F5F91509923B1F7260F209375008FEF21
:1001D0008093A4000895A82FB92F80E090E041E01B
:1001E00050EA609530E009C02D9182279795879558
:1001F00010F084279527305EC8F36F5FA8F3089549
:10020000EADF8D939D930895CF93CFB7CF93C39596
:10021000829BE9F7829B09C0829B07C0829B05C035
:10022000829B03C0829B01C0A6C0DF93C091A10046
:10023000DD27C855DF4F829B02C0DF91EBCF2F93A4
:100240000F931F9300B32FEF02FB20F94F933F93BF
:1002500010B34FEF012702FB21F93BE031C04E7F85
:10026000012F10B3216028C0102F4D7F22600000A5
:1002700000B329C04B7F2460012F000010B32BC0B6
:1002800010B3477F28602AC04F7E00B320612CC086
:100290004F7D10B320622FC04F7B00B3206432C06B
:1002A000422700B349934FEF0000102712FB20F9BB
:1002B00010B31471C9F1297F91F2012702FB21F9D2
:1002C00000B3237F89F2315058F1102712FB22F935
:1002D00010B3277E79F2012702FB23F92F7C81F2EC
:1002E00000B3102712FB24F92F7971F200C010B36C
:1002F000012702FB25F92F7359F200C000B3102724
:1003000012FB26F9223040F200C010B3012702FB95
:1003100027F9243028F64F77206810B30000F9CF72
:1003200010E41ABF00271CC03B503195C31BD040BE
:1003300010E41ABF0881033C11F10B3401F1209144
:100340009F001981110F1213EDCF4A81441F093606
:1003500059F10D3211F0013E29F74F7009F0042FC9
:100360000093A6003F914F911F910F912F91DF9124
:10037000CAB7C6FD4CCFCF91CFBFCF911895209172
:10038000A600222379F31091A4001123C1F5343083
:10039000C2F13093A4002093A0001091A1003BE093
:1003A000311B3093A1002DC00091A40001303CF519
:1003B0000AE54F7049F430916A0034FD24C000937F
:1003C0006A00C8E8D0E023C0433049F03091930080
:1003D00034FD19C000939300C4E9D0E018C03091F7
:1003E000BE0034FD10C00093BE00CFEBD0E00FC0C4
:1003F0002795A8F45150A9F4220F0000F9CF4AE53F
:1004000003C042ED01C0432FC4E1D0E032E011B39C
:100410001461929A11BB02B320E414E15F930127A7
:1004200056E002BB279520F4515021F4220FF9CF5A
:10043000012756E000003B5A02BBD0F2279528F472
:10044000515029F4220F0000F9CF012756E02795DB
:1004500002BB20F4515021F4220FF9CF012756E0BE
:100460002991332302BB21F60B7E1091A500110FB9
:10047000C651D04002BB11F010939F0010E41ABF88
:10048000046011B31B7E402F4B7E5F9100C000C003
:1004900002BB11BB42BB66CF1F93CF93DF93162FD6
:1004A000EA01288124FF05C0298138E82327298310
:1004B00002C02AE528839E012E5F3F4F412FFC0199
:1004C000D90181918D9341501416DCF3C901612F3C
:1004D00097DE1C5F1883DF91CF911F91089543E948
:1004E00050E0DADF08954EEB50E0D6DF0895CF9369
:1004F000DF936091A400635067FDB4C08091A100B8
:10050000CCE0D0E0C81BD109C855DF4F8091A000D6
:10051000803118F4CE0148DE9FC08D3209F08CC0C6
:10052000683009F099C083EC809388008AE5809355
:100530006A00109287008881807619F0CE01EADD8A
:1005400068C09A81109291008981882331F41092B9
:10055000920021E930E082E057C0853019F4909391
:10056000A5004FC08630A9F58B81813041F489E622
:1005700090E09093A3008093A20082E126C0823095
:1005800019F4CE01B2DD21C08330F1F4992341F496
:100590008DEA90E09093A3008093A20084E015C0C0
:1005A000913041F48BE890E09093A3008093A200F7
:1005B00082E20BC0923041F48BE790E09093A3006D
:1005C0008093A20080E101C080E090E490938700D6
:1005D00020C0883079F0893019F49093A70011C0B9
:1005E0008A3059F08B3069F48BE4809394008093C7
:1005F000BF0007C027EA30E002C021E930E081E017
:1006000003C021E930E080E03093A3002093A200F2
:1006100009C08F3F39F4988197FD8E8190E89093BF
:10062000870007C09F81992321F49E81981708F4C1
:10063000892F80936B0010C08091870087FF0CC0CA
:10064000CE01A8DD8F3F21F48EE180936A0004C0C3
:10065000882311F010926B008091A400181614F4F6
:100660001092A40080916A0084FF54C080916B00B6
:100670008F3F09F44FC0C82F893008F0C8E08C1BA9
:1006800080936B008091880098E889278093880088
:10069000CC2379F12091870027FF08C089E890E0FA
:1006A0006C2F6EDDC82F893078F523C08091A200B1
:1006B0009091A30026FF0AC0FC012C2FA9E8B0E00E
:1006C00034913D9331962150D9F708C0DC012C2F8D
:1006D000E9E8F0E03D9131932150E1F72C2F2150D2
:1006E00030E02F5F3F4F280F391F3093A300209336
:1006F000A20089E890E06C2F83DDCC5FCC3041F024
:100700008FEF80936B0004C08FEF80936B00CEE17E
:10071000C0936A0084E190B3947131F48150D9F7A9
:100720001092A50010929F00DF91CF91089585B798
:10073000826085BF8BB780648BBF8BE4809394000D
:100740008093BF008AE5809393008093BE00089554
:100750002EE088E190E00FB6F894A89581BD0FBE19
:1007600021BD8BEE82BB84E181BB88EB9BE02CE258
:1007700031E0F9013197F1F70197D9F711BAD7DFD5
:1007800010926C0010926D008FEF85BB8CE287BBDE
:1007900087B380958C6088BB82E58DB97894A895E5
:1007A000A6DE80917500882399F180917E008823D0
:1007B00079F51092A4008DB1837F8DB92DB183B3EB
:1007C00090E08095909583709070880F991F880FA6
:1007D000991F282B2DB914C0F0E0EA58FF4F8081F3
:1007E0008FB901C0A895779BFDCF80917E009FB106
:1007F000E82FF0E0E158FF4F90838F5F80937E00F9
:10080000E0917E0080917500E81730F3109275003A
:100810008091930084FF10C060917E0080916D00F4
:10082000862B51F08FE790E05ADE80917E00887031
:1008300080936D0010927E0080916C00882309F4F3
:10084000AECF9091BE0094FFAACF823021F480E613
:1008500090E068E003C088E690E062E044DE8091CA
:0E0860006C00815080936C009ACFF894FFCF0B
:0C086E00A12000000000020003005AFF5F
:00000001FF
