:1000000058C0E8C171C070C06FC06EC06DC06CC018
:100010006BC06AC069C068C067C066C065C064C0A4
:1000200063C062C061C01201100102000008C01666
:10003000E1050001010200011003550053004200D8
:100040002D00320033003200220377007700770062
:100050002E00720065006300750072007300690075
:100060006F006E002E006A0070000403090409028C
:100070004300020100803209040000010202010075
:1000800005240010010424020205240600010524B1
:10009000010301070583030800FF09040100020AA8
:1000A00000000007050102080000070581020800A2
:1000B000000011241FBECFE5D4E0DEBFCDBF10E0AD
:1000C000A0E6B0E0EAE2FAE002C005900D92AC369C
:1000D000B107D9F712E0ACE6B0E001C01D92A4343C
:1000E000B107E1F730D49FC48BCF1F93CF93DF9339
:1000F000162FEA01288124FF05C0298138E823272B
:10010000298302C02AE528839E012E5F3F4F412F9D
:10011000FC01D90181918D9341501416DCF3C90182
:10012000612F54D11C5F1883DF91CF911F910895E7
:1001300040E850E0DADF08954BEA50E0D6DF08955A
:10014000CF93DF9360919100635067FDB4C08091BD
:100150008E00CCE0D0E0C81BD109CB56DF4F809198
:100160008D00803118F4CE01CCD39FC08D3209F0C0
:100170008CC0683009F099C083EC809375008AE5E3
:100180008093600010926C008881807619F0CE0117
:1001900057D368C09A8110927E008981882331F4F8
:1001A00010927F002EE730E082E057C0853019F4CE
:1001B000909392004FC08630A9F58B81813041F435
:1001C00086E290E09093900080938F0082E126C0B9
:1001D000823019F4CE011FD321C08330F1F499236A
:1001E00041F48AE690E09093900080938F0084E041
:1001F00015C0913041F488E490E090939000809392
:100200008F0082E20BC0923041F488E390E090933B
:10021000900080938F0080E101C080E090E4909393
:100220006C0020C0883079F0893019F490939400E4
:1002300011C08A3059F08B3069F48BE480938100CF
:100240008093AC0007C024E930E002C02EE730E024
:1002500081E003C02EE730E080E0309390002093EF
:100260008F0009C08F3F39F4988197FD8E8190E807
:1002700090936C0007C09F81992321F49E81981769
:1002800008F4892F8093610010C080916C0087FF73
:100290000CC0CE0115D38F3F21F48EE18093600016
:1002A00004C0882311F0109261008091910018160B
:1002B00014F4109291008091600084FF54C08091EA
:1002C00061008F3F09F44FC0C82F893008F0C8E0A3
:1002D0008C1B809361008091750098E8892780933A
:1002E0007500CC2379F120916C0027FF08C086E7C8
:1002F00090E06C2FCDD2C82F893078F523C0809143
:100300008F009091900026FF0AC0FC012C2FA6E7D9
:10031000B0E034913D9331962150D9F708C0DC010B
:100320002C2FE6E7F0E03D9131932150E1F72C2F9F
:10033000215030E02F5F3F4F280F391F309390003E
:1003400020938F0086E790E06C2F40D0CC5FCC30BC
:1003500041F08FEF8093610004C08FEF80936100C4
:10036000CEE1C093600084E190B3947131F4815088
:10037000D9F71092920010928C00DF91CF910895DE
:1003800085B7826085BF8BB780648BBF8BE4809319
:1003900081008093AC008AE5809380008093AB005D
:1003A0000895A82FB92F80E090E041E050EA6095D1
:1003B00030E009C02D9182279795879510F084270A
:1003C0009527305EC8F36F5FA8F30895EADF8D9339
:1003D0009D930895CF93CFB7CF93C395829BE9F7B1
:1003E000829B09C0829B07C0829B05C0829B03C081
:1003F000829B01C0A6C0DF93C0918E00DD27CB5643
:10040000DF4F829B02C0DF91EBCF2F930F931F939F
:1004100000B32FEF02FB20F94F933F9310B34FEF40
:10042000012702FB21F93BE031C04E7F012F10B3C1
:10043000216028C0102F4D7F2260000000B329C02A
:100440004B7F2460012F000010B32BC010B3477FF7
:1004500028602AC04F7E00B320612CC04F7D10B3AE
:1004600020622FC04F7B00B3206432C0422700B30C
:1004700049934FEF0000102712FB20F910B31471BD
:10048000C9F1297F91F2012702FB21F900B3237FF3
:1004900089F2315058F1102712FB22F910B3277E50
:1004A00079F2012702FB23F92F7C81F200B3102798
:1004B00012FB24F92F7971F200C010B3012702FB5F
:1004C00025F92F7359F200C000B3102712FB26F94B
:1004D000223040F200C010B3012702FB27F924307C
:1004E00028F64F77206810B30000F9CF10E41ABF48
:1004F00000271CC03B503195C31BD04010E41ABFED
:100500000881033C11F10B3401F120918C00198119
:10051000110F1213EDCF4A81441F093659F10D32E4
:1005200011F0013E29F74F7009F0042F009393005A
:100530003F914F911F910F912F91DF91CAB7C6FD47
:100540004CCFCF91CFBFCF9118952091930022230C
:1005500079F3109191001123C1F53430C2F1309339
:10056000910020938D0010918E003BE0311B309361
:100570008E002DC00091910001303CF50AE54F70CE
:1005800049F43091600034FD24C000936000C5E759
:10059000D0E023C0433049F03091800034FD19C0D1
:1005A00000938000C1E8D0E018C03091AB0034FD6A
:1005B00010C00093AB00CCEAD0E00FC02795A8F4A0
:1005C0005150A9F4220F0000F9CF4AE503C042EDD3
:1005D00001C0432FC4E1D0E032E011B31461929A1C
:1005E00011BB02B320E414E15F93012756E002BB84
:1005F000279520F4515021F4220FF9CF012756E01E
:1006000000003B5A02BBD0F2279528F4515029F440
:10061000220F0000F9CF012756E0279502BB20F4F6
:10062000515021F4220FF9CF012756E029913323AD
:1006300002BB21F60B7E10919200110FC651D040E3
:1006400002BB11F010938C0010E41ABF046011B3C8
:100650001B7E402F4B7E5F9100C000C002BB11BBD0
:1006600042BB66CFCF92DF92EF92FF920F931F9320
:10067000CF93DF936B017C01C42FD22FDC01CB0120
:10068000B695A79597958795805A9C41A94EBF4FDF
:10069000BC01CD01A7019601A4D169017A0108949A
:1006A000C108D108E108F1089C2D8D2D599A1AB87E
:1006B000C13021F0C295C07FC06801C0C0EB10E01E
:1006C00005501040000F111FD695DD0FDD0FDD0F17
:1006D000D02BDC2BD0BD99B980BD88E18AB984BB11
:1006E0008FEF85BBDF91CF911F910F91FF90EF901E
:1006F000DF90CF900895CF93DF9313C0E82FF0E001
:10070000E05CFE4F20812CB98F5F809342022091E4
:10071000910027FF06C0891B8150893010F010928C
:1007200091005D9B08C08091420290914102981710
:1007300011F09D99E3CF209140020FC0821759F02C
:100740009BB13CB19C7171F4F0E0E954FF4F3083F0
:1007500080933F0102C0AC9807C0E0913F018E2F0B
:100760008F5F8F775F99EACF8091800084FF36C0DA
:10077000C0913F0180914002C81721F4909143023B
:10078000992361F1C81BCF77C93008F0C8E0DC2F8E
:10079000D80FD7FF0CC0DF77A7EBB0E0E7E3F1E0BD
:1007A00090E003C02D9121939F5F9D17D9F790E0B2
:1007B00089549F4F6C2FBCDCD0934002CC2339F07E
:1007C000AC9AC83021F480913F018D1719F080E078
:1007D00090E002C081E090E080934302DF91CF91EE
:1007E00008950F9360916E0070916F00809170007A
:1007F00090917100409173002091720000917400FB
:1008000031DF1092420210923F011092400210928A
:1008100041020F910895FC018381813049F486E201
:1008200090E09093900080938F008091260008952F
:100830008EE690E09093900080938F0083E408957B
:10084000FC01808180768032E9F48181982F90527A
:100850009230D0F0823281F495B382818170880F1A
:10086000880F880F977F892B85BB80916D00882327
:1008700019F482E080936D00808187FD07C081E0DC
:100880008093430280E008958FEF089580E00895FB
:10089000FC0180916E00808380916F008183809144
:1008A00070008283809171008383809172008483C1
:1008B00080917300858380917400868387E008951A
:1008C000FC01808180936E00818180936F00828122
:1008D0008093700083818093710084818093720083
:1008E000958190937300268120937400933010F0CB
:1008F00010927300813011F41092720072DF81E067
:100900000895FC0185B394E0892785BB909142024C
:100910000CC08A2F8F5F891739F02191B0E0A05C5D
:10092000BE4F2C93809341026150A09141026623F7
:1009300081F78091420281508A1B893018F48FEF31
:100940008093910008952EE088E190E00FB6F8942E
:10095000A89581BD0FBE21BD8BEE82BB84E181BB1A
:10096000A89584EC99E02CE231E0F9013197F1F798
:100970000197D9F711BA80E895E2A0E0B0E0809342
:100980006E0090936F00A0937000B093710010926E
:1009900072001092730088E08093740022DFF0DC14
:1009A00010926D0010924302A29A7894A895C8DB29
:1009B000A2DE80916D008823C9F39091AB0094FF73
:1009C000F5CF823021F482E690E068E003C08AE649
:1009D00090E062E0B1DB80916D00815080936D000A
:1009E000E5CFA1E21A2EAA1BBB1BFD010DC0AA1F59
:1009F000BB1FEE1FFF1FA217B307E407F50720F088
:100A0000A21BB30BE40BF50B661F771F881F991F02
:100A10001A9469F760957095809590959B01AC014B
:0A0A2000BD01CF010895F894FFCF47
:0C0A2A005AFFA1200000000002000300A1
:00000001FF
